:100000000C9465100C9496100C9496100C94961009
:100010000C9496100C9496100C9496100C949610C8
:100020000C9496100C9496100C9496100C949610B8
:100030000C9496100C9496100C9496100C949610A8
:100040000C9496100C94D2290C9496100C94961043
:100050000C9496100C9496100C9422250C9440232A
:100060000C9496100C9431FF0C9496100C949610EE
:100070000C9496100C9496100C9496100C94961068
:100080000C9496100C9496100C9496100C94961058
:100090000C9496100C9496100C9496100C94961048
:1000A0000C9496100C9496100C9496100C94961038
:1000B0000C9496100C9496100C9496100C94961028
:1000C0000C9496100C9496100C9496100C94B223E9
:1000D0000C9488230C9496100C9496100C94961003
:1000E0000C949610084AD73B3BCE016E84BCBFFDF2
:1000F000C12F3D6C74319ABD56833DDA3D00C77FF8
:1001000011BED9E4BB4C3E916BAAAABE0000008090
:100110003F05A84CCDB2D44EB93836A9020C50B91F
:10012000918688083CA6AAAA2ABE000000803F004B
:100130000D9430060D9429020D9483010D94AD05A4
:100140000D9429010D9491050D9481060D94F407E9
:100150000D94CC010D948C070D94AA020D948A067F
:100160000D9491040D94DB050D94251D0D945327DA
:100170000D94D1060D9410050D944B064E414E4939
:100180004E495459494E46CDCCCC3D0AD7233C1755
:10019000B7D13877CC2B329595E6241FB14F0A00A2
:1001A0000020410000C84200401C4620BCBE4CCA92
:1001B0001B0E5AAEC59D7400407A10F35A00A0720F
:1001C0004E18090010A5D4E80000E8764817000092
:1001D000E40B54020000CA9A3B000000E1F5050060
:1001E0000080969800000040420F000000A08601A9
:1001F000000000102700000000E803000000006479
:1002000000000000000A00000000000100000000E3
:10021000002C76D888DC674F0823DFC1DFAE59E1B8
:10022000B1B796E5E3E453C63AE651997696E8E627
:10023000C28426EB898C9B62ED407C6FFCEFBC9CFA
:100240009F40F2BAA56FA5F490055A2AF75C936B0C
:100250006CF9676DC11BFCE0E40D47FEF520E6B5C7
:1002600000D0ED902E0300943577050080841E08A1
:100270000000204E0A000000C80C333333330F98BF
:100280006E12831141EF8D2114893BE65516CFFE86
:10029000E6DB18D1844B381BF77C1D901DA4BBE412
:1002A00024203284725E228100C9F124ECA1E53D54
:1002B000277C3C3E5E2B3D3F2F5B5D3B2C2A225C26
:1002C000004572726F722077726974696E6720746C
:1002D0006F20454550524F4D210A00290A002062E7
:1002E000797465733B20637263200053657474698D
:1002F0006E67732053746F72656420280020286332
:10030000616C63756C6174656429210A0020213D6C
:100310002000454550524F4D20435243206D697394
:100320006D61746368202D202873746F7265642971
:100330002000290A002062797465733B2063726390
:1003400020002073746F7265642073657474696E25
:100350006773207265747269657665642028002071
:100360004D61726C696E3D563431290A002845454D
:1003700050524F4D3D00454550524F4D20766572CD
:1003800073696F6E206D69736D61746368200048D6
:10039000617264636F6465642044656661756C7442
:1003A0002053657474696E6773204C6F6164656473
:1003B0000A00F4010000F40100006400000088134A
:1003C000000000009643000096430000A04000009B
:1003D000C8410000A0420000A0420000C843000045
:1003E0000C4320204D383531205A005A2D50726F61
:1003F0006265204F666673657420286D6D293A0A20
:100400000020440020490020204D3330312050008E
:100410005049442073657474696E67733A0A00200A
:100420005A0020204D3432302053004175746F2023
:10043000426564204C6576656C696E673A0A0020F7
:100440005A0020590020204D323036205800486F85
:100450006D65206F66667365743A0A00204500205A
:100460005A0020590020580020420020540020202B
:100470004D323035205300416476616E6365643AD5
:1004800020533C6D696E5F66656564726174653E9C
:1004900020543C6D696E5F74726176656C5F666551
:1004A0006564726174653E20423C6D696E5F736580
:1004B000676D656E745F74696D655F6D733E20581E
:1004C0003C6D61785F78795F6A65726B3E205A3C5B
:1004D0006D61785F7A5F6A65726B3E20453C6D6145
:1004E000785F655F6A65726B3E0A00205400205297
:1004F0000020204D323034205000416363656C652C
:10050000726174696F6E2028756E6974732F73320F
:10051000293A20503C7072696E745F616363656C48
:100520003E20523C726574726163745F61636365FF
:100530006C3E20543C74726176656C5F61636365E8
:100540006C3E0A00204500205A0020590020204D12
:100550003230312058004D6178696D756D204163EE
:1005600063656C65726174696F6E2028756E69745D
:10057000732F7332293A0A00204500205A0020596F
:100580000020204D3230332058004D6178696D7560
:100590006D206665656472617465732028756E6987
:1005A00074732F73293A0A00204500205A002059FD
:1005B0000020204D3932205800537465707320702C
:1005C000657220756E69743A0A0020204D32303011
:1005D0002044300A0020204D323030204400204496
:1005E000697361626C65640A0046696C616D656E71
:1005F000742073657474696E67733A0020204D31FE
:1006000034392043203B20556E69747320696E2075
:1006100043656C736975730A0020204732312020CE
:1006200020203B20556E69747320696E206D6D0A21
:10063000007A5F6D696E3A2000795F6D696E3A20CD
:1006400000785F6D696E3A20005265706F72746950
:100650006E6720656E6473746F7020737461747557
:10066000730A0020746F6F206C6F6E67206578745A
:10067000727573696F6E2070726576656E746564ED
:100680000A0020636F6C6420657874727573696FFB
:100690006E2070726576656E7465640A0024F4D409
:1006A0003050C38E20C2A24017828B7011127A91F3
:1006B0000D816CD90AA861E108C7586607615143EA
:1006C000061E4B5D05C145A7041A411104093D985A
:1006D00003713931034036DB0265339102D4305463
:1006E00002802E1D02632CEE01752AC501B028A0E0
:1006F00001102781018F2564012B244B01E0223456
:1007000001AC211F018D200D01801FFC00841EED16
:1007100000971DDF00B81CD200E61BC600201BBCE2
:1007200000641AB200B219A8000A19A0006A189948
:1007300000D117910040178B00B516840031167E4A
:1007400000B31579003A157300C7146F0058146A86
:1007500000EE1366008813630025135E00C7125B6A
:10076000006C12570015125400C111510070114F46
:100770000021114B00D61049008D1047004610444F
:100780000002104200C00F4000800F3E00420F3CAC
:1007900000060F3B00CB0E3800930E37005C0E3581
:1007A00000270E3400F30D3200C10D3100900D30E2
:1007B00000600D2E00320D2D00050D2C00D90C2BE4
:1007C00000AE0C2900850C29005C0C2700350C2795
:1007D000000E0C2600E80B2400C40B2400A00B2301
:1007E000007D0B23005A0B2100390B2100180B2030
:1007F00000F80A1F00D90A1E00BB0A1E009D0A1D30
:1008000000800A1D00630A1C00470A1B002C0A1BFB
:1008100000110A1A00F7091A00DD091900C40919A4
:1008200000AB091900920917007B0918006309172A
:10083000004C09160036091600200916000A091591
:1008400000F5081500E0081400CC081400B80814DE
:1008500000A4081400900813007D0812006B081310
:10086000005808120046081200340811002308112D
:10087000001208110001081100F0071000E0071035
:1008800000D0071000C0071000B0070F00A107102C
:100890000091070E0083070F0074070F0065070E15
:1008A0000057070E0049070E003B070D002E070EEC
:1008B0000020070D0013070D0006070D00F9060CB8
:1008C00000ED060D00E0060C00D4060C00C8060C76
:1008D00000BC060C00B0060C00A4060B0099060C28
:1008E000008D060B0082060B0077060B006C060BD2
:1008F0000061060A0057060B004C060A0042060A71
:100900000038060A002E060A0024060A001A060A03
:10091000001006090007060A00FD050900F4050994
:1009200000EB050900E2050900D9050900D0050919
:1009300000C7050900BE050900B5050800AD05089A
:1009400000A50509009C050800940508008C050811
:1009500000840508007C050800740508006C050784
:1009600000650508005D050700560508004E0507EF
:100970000047050700400508003805070031050756
:10098000002A050700230507001C050600160507B9
:10099000000F0507000805060002050700FB040616
:1009A00000F5040700EE040600E8040600E2040770
:1009B00000DB040600D5040600CF040600C90406C7
:1009C00000C3040600BD040600B7040600B1040518
:1009D00000AC040600A6040600A00405009B040663
:1009E0000095040500900406008A040500850405AE
:1009F00000800406007A04050075040500700405F3
:100A0000006B04050066040500610405005C040534
:100A10000057040500520405004D04050048040574
:100A200000430405003E0404003A040500350405B3
:100A300000300404002C04050027040400230405EE
:100A4000001E0404001A0404001604050011040426
:100A5000000D04040009040500040404000004045B
:100A600000FC030400F8030400F4030400F0030492
:100A700000EC030400E8030400E4030400E00304C2
:100A800000DC030400D8030400D4030400D00304F2
:100A900000CC030400C8030300C503030024F404CE
:100AA000D9201BC40C5C0E9804C4095F0265077151
:100AB00001F405F900FB04B30048048700C1036991
:100AC000005803550003034500BE023A008402317A
:100AD0000053022A002902250004022000E4011C20
:100AE00000C8011900AF0117009801140084011318
:100AF00000710110006101100051010E0043010D51
:100B00000036010B002B010B0020010B0015010921
:100B1000000C01090003010800FB000800F30008B5
:100B200000EB000700E4000600DE000600D8000627
:100B300000D2000600CC000500C7000500C2000579
:100B400000BD000400B9000400B5000400B10004B9
:100B500000AD000400A9000400A5000300A20003EA
:100B6000009F0004009B0003009800030095000212
:100B70000093000300900003008D0002008B00032F
:100B80000088000200860002008400030081000249
:100B9000007F0002007D0002007B0002007900025D
:100BA000007700010076000200740002007200016C
:100BB00000710002006F0002006D0001006C000275
:100BC000006A000100690002006700010066000180
:100BD0000065000100640002006200010061000184
:100BE00000600001005F0002005D0001005C000188
:100BF000005B0001005A000100590001005800018B
:100C0000005700010056000100550001005400018A
:100C10000053000000530001005200010051000188
:100C200000500001004F0001004E0000004E000186
:100C3000004D0001004C0001004B0000004B000182
:100C4000004A00010049000100480000004800017E
:100C5000004700010046000000460001004500007A
:100C60000045000100440001004300000043000172
:100C7000004200000042000100410000004100016C
:100C800000400001003F0000003F0001003E000066
:100C9000003E0001003D0000003D0001003C00005E
:100CA000003C0000003C0001003B0000003B000154
:100CB000003A0000003A000100390000003900014C
:100CC0000038000000380000003800010037000044
:100CD0000037000100360000003600000036000139
:100CE0000035000000350000003500010034000030
:100CF0000034000000340001003300000033000025
:100D00000033000100320000003200000032000118
:100D1000003100000031000000310001003000000F
:100D20000030000000300001002F0000002F000004
:100D3000002F0000002F0001002E0000002E0000F8
:100D4000002E0001002D0000002D0000002D0000ED
:100D5000002D0001002C0000002C0000002C0000E1
:100D6000002C0001002B0000002B0000002B0000D5
:100D7000002B0001002A0000002A0000002A0000C9
:100D8000002A0001002900000029000000290000BD
:100D900000290000002900010028000000280000B0
:100DA00000280000002800000028000100270000A3
:100DB0000027000000270000002700000027000196
:100DC000002600000026000000260000002600008B
:100DD000002600010025000000250000002500007D
:100DE000002500000025000000250001002400006F
:100DF0000024000000240000002400000024000162
:100E00000023000000230000002300000023000056
:100E10000023000000230000002300010022000046
:100E2000002200000022000000220000002200003A
:100E3000002200010021000000210000002100002C
:100E4000002100000021000000210000002100011D
:100E50000020000000200000002000000020000012
:100E60000020000000200000002000000020000101
:100E7000001F0000001F0000001F0000001F0000F6
:100E8000001F0000001F0000001F0001001E0000E6
:100E9000001E0000001E0000001E0000004D38343F
:100EA00020582059205A20450023646566696E65E4
:100EB000202044454641554C545F4B642000236438
:100EC0006566696E65202044454641554C545F4B2C
:100ED00069200023646566696E65202044454641AB
:100EE000554C545F4B702000504944204175746F3D
:100EF00074756E652066696E69736865642120503B
:100F0000757420746865206C617374204B702C209C
:100F10004B6920616E64204B6420636F6E73746153
:100F20006E74732066726F6D2062656C6F772069D6
:100F30006E746F20436F6E66696775726174696F56
:100F40006E2E680A00504944204175746F74756EA6
:100F500065206661696C6564212074696D656F75D3
:100F6000740A00504944204175746F74756E652091
:100F70006661696C6564212054656D706572617489
:100F800075726520746F6F20686967680A00204B6E
:100F9000643A2000204B693A2000204B703A200030
:100FA0000A20436C617373696320504944200A002E
:100FB0002054753A2000204B753A2000206D61784E
:100FC0003A2000206D696E3A200020643A2000200B
:100FD000626961733A200048656174696E672066D2
:100FE00061696C65640048656174696E672066615B
:100FF000696C65640070012C0190012701B0012229
:1010000001C0011D01F00118011002130130020E90
:10101000016002090190020401C002FF000003FA0E
:10102000004003F5008003F000D003EB002004E64D
:10103000007004E100E004DC004005D700C005D2E8
:10104000004006CD00D006C8008007C3003008BEAF
:1010500000F008B900C009B400B00AAF00B00BAA94
:1010600000D00CA500000EA000500F9B00C01096F1
:10107000005012910000148C00C0158700B0178238
:1010800000B0197D00D01B7800001E730040206E58
:101090000090226900F024640040275F0090295AE4
:1010A00000E02B5500102E500020304B001032462F
:1010B00000E033410090353C001037370070383283
:1010C00000A0392D00B03A2800A03B2300603C1E50
:1010D00000103D1900903D1400103E0F00703E0AB4
:1010E00000C03E0500003F0000403FFBFF803FF690
:1010F000FFC03FF1FF546865726D616C2052756EE0
:1011000061776179004D494E54454D5020747269A4
:10111000676765726564004D415854454D502074B1
:101120007269676765726564002020506C616E6E3D
:10113000657242756666657242797465733A20001D
:101140002046726565204D656D6F72793A200043C7
:101150006F6D70696C65643A204A756E2020392085
:10116000323031390A00207C20417574686F723A40
:101170002043522D3130532050726F0A00323031EB
:10118000372D31302D31302031323A303000204C83
:1011900061737420557064617465643A200056650B
:1011A0007220312E36302E330A004D61726C696E1A
:1011B0000020536F667477617265205265736574A1
:1011C0000A00205761746368646F67205265736515
:1011D000740A002042726F776E206F75742052651A
:1011E0007365740A002045787465726E616C2052D4
:1011F000657365740A00506F77657255700A0073E5
:10120000746172740A006572726F72207772697409
:10121000696E6720746F2066696C650A00205A3A0F
:101220000020593A0020583A00656E6473746F705C
:1012300073206869743A2000446F6E65207361768C
:10124000696E672066696C652E0A004D32390000B0
:10125000002100240027002A002D00300033000167
:10126000010000040107010A0100002200250028F6
:10127000002B002E0031003400020100000501089F
:10128000010B01000020002300260029002C002F64
:1012900000320000010000030106010901050505F7
:1012A00005070508080808020202020A0A080804DD
:1012B000040404010101010101010103030303030B
:1012C000030303040707070C0C0C0C0C0C0C0C029A
:1012D00002020206060606060606060B0B0B0B0BA1
:1012E0000B0B0B010210202008081020401020409A
:1012F00080020102010804020101020408102040DA
:1013000080804020100804020180040201804020F7
:101310001008040201080402010102040810204020
:1013200080010204081020408000000A0B02090C12
:101330000D0E08070304010000000000000000007B
:10134000000000000000000000000000000000009D
:10135000000000000012111000000000000000005A
:101360000000000000000000000000000000005A23
:101370002070726F6265206F75742E206265640A3A
:1013800000473238205A20466F7262696464656E85
:101390000A0050726F62696E67206661696C6564ED
:1013A0000A00205A3A200020593A20004265642061
:1013B000583A20004D38340057726974696E6720BE
:1013C000746F2066696C653A20006F70656E2066E8
:1013D00061696C65642C2046696C653A20006F7009
:1013E000656E206661696C65642C2046696C653A9F
:1013F000200046696C652073656C65637465640ADA
:10140000002053697A653A200046696C65206F7048
:10141000656E65643A20006F70656E206661696C68
:1014200065642C2046696C653A20002066696C650D
:101430003A20004E6F7720002220706F7300222028
:10144000706172656E743A2200535542524F555482
:10145000494E452043414C4C207461726765743A93
:101460002200747279696E6720746F2063616C6CFE
:10147000207375622D67636F64652066696C6573A0
:10148000207769746820746F6F206D616E79206CAD
:101490006576656C732E204D4158206C6576656CC1
:1014A0002069733A0043616E6E6F74206F70656ED1
:1014B0002073756264697220002E0A005772697485
:1014C000696E6720746F2066696C653A20006F70E2
:1014D000656E206661696C65642C2046696C653AAE
:1014E000200053442063617264206F6B0A006F70A8
:1014F000656E526F6F74206661696C65640A007670
:101500006F6C756D652E696E6974206661696C65B6
:10151000640A00534420696E6974206661696C0A2C
:10152000004D3234004D3233202573006175746FE5
:1015300025692E6700656E7175657565696E672032
:1015400022006563686F3A006265640A002C2073AC
:10155000797374656D2073746F70706564212048B1
:1015600065617465725F49443A20005072696E7417
:1015700065722068616C7465642E206B696C6C28E0
:10158000292063616C6C6564210A004572726F7278
:101590003A00434F4D4D554E49434154494F4E003B
:1015A00044525952554E004552524F525300494EE3
:1015B000464F004543484F0020496E76616C696490
:1015C000206578747275646572200000009643008F
:1015D0000096430000C84300000000000000000027
:1015E00000000042696C696E656172204C65766529
:1015F0006C696E6720477269643A0A0020706F73E5
:101600006974696F6E206F7574206F662072616EE9
:1016100067652E0A003F50726F6265200020666980
:101620007273740A005A0059005800486F6D6520A3
:101630000052756E6E696E6720696E204452592D96
:1016400052554E206D6F64650A004732392041754E
:10165000746F20426564204C6576656C696E670A1C
:101660000028422961636B00284629726F6E74005E
:101670002852296967687400284C29656674003F00
:101680002856296572626F7365206C6576656C20DB
:10169000697320696D706C61757369626C6520286F
:1016A000302D34292E0A00426164205A2076616C64
:1016B00075650A004E6F2062696C696E6561722003
:1016C000677269640A0044656C6574696F6E2066B0
:1016D00061696C65642C2046696C653A2000466936
:1016E0006C652064656C657465643A006F70656E46
:1016F000206661696C65642C2046696C653A20003F
:10170000202F002042403A0020403A004732382043
:1017100058302059300020573A004732382058308E
:101720002059300020573A00205A3A0020593A00F8
:1017300020436F756E7420583A0020453A00205AB5
:101740003A0020593A00583A0053657474696E673C
:101750002054726176656C20416363656C657261CB
:1017600074696F6E3A200053657474696E67205215
:1017700065747261637420416363656C6572617442
:10178000696F6E3A200053657474696E67205072F9
:10179000696E7420416363656C65726174696F6E14
:1017A0003A200053657474696E67205072696E74D4
:1017B00020616E642054726176656C2041636365BC
:1017C0006C65726174696F6E3A2000205A0020596E
:1017D00000580020204D61783A2000205A002059FE
:1017E00000580020204D696E3A20004F6E20004FB7
:1017F000666600536F667420656E6473746F7073F1
:101800003A200020643A0020693A0020703A004FE4
:1018100066660A00466164652048656967687420E9
:1018200000426564204C6576656C696E67200046F1
:1018300061696C656420746F20656E61626C6520FF
:10184000426564204C6576656C696E670A004D657B
:10185000736820706F696E742063616E6E6F7420A0
:101860006265207265736F6C7665640A004D343270
:101870003120696E636F727265637420706172618A
:101880006D657465722075736167650A00546F6FCA
:10189000206661722066726F6D2072656665726582
:1018A0006E636520706F696E740A0047322F47338C
:1018B0002062616420706172616D65746572730A83
:1018C00000205A3A200020593A20004265642058EE
:1018D0003A20004D65736820706F696E74206361F3
:1018E0006E6E6F74206265207265736F6C766564CE
:1018F0000A00456E642066696C65206C6973740A21
:1019000000426567696E2066696C65206C69737456
:101910000A004E6F74205344207072696E74696EB1
:10192000670A005344207072696E74696E672062A2
:1019300079746520002569730025696D2025697318
:10194000002569682025696D202569730025696473
:10195000202569682025696D20256973002569792E
:1019600020256964202569682025696D2025697313
:10197000005072696E742074696D653A200050726F
:101980006F7465637465642050696E0A006F6666E3
:1019900000B315AE15A715A015921544454255473D
:1019A0003A004D3131332053006F6B004361703A80
:1019B000454D455247454E43595F5041525345525C
:1019C0003A300A004361703A434153455F4C4947FE
:1019D00048545F4252494748544E4553533A300A9F
:1019E000004361703A544F47474C455F4C49474864
:1019F00054533A300A004361703A534F46545741AA
:101A000052455F504F5745523A300A004361703A91
:101A10004C4556454C494E475F444154413A310A82
:101A2000004361703A5A5F50524F42453A310A00C2
:101A30004361703A4155544F4C4556454C3A310A32
:101A4000004361703A5052494E545F4A4F423A3116
:101A50000A004361703A50524F47524553533A304F
:101A60000A004361703A4155544F5245504F525409
:101A70005F54454D503A310A004361703A45455034
:101A8000524F4D3A310A004649524D574152455F37
:101A90004E414D453A4D61726C696E20566572201B
:101AA000312E36302E332028437265616C6974798B
:101AB00033442920534F555243455F434F44455FBC
:101AC00055524C3A68747470733A2F2F6769746872
:101AD00075622E636F6D2F4D61726C696E4669720F
:101AE0006D776172652F4D61726C696E2050524F37
:101AF000544F434F4C5F56455253494F4E3A312E47
:101B000030204D414348494E455F545950453A773E
:101B100077772E6378737733642E636F6D20455823
:101B20005452554445525F434F554E543A31205517
:101B30005549443A63656465326132662D343161DA
:101B4000322D343734382D396231322D63353563D7
:101B500036326633363766660A002F2F20000001C2
:101B600036372603FF3C3D380EFF2E303E12FFFF76
:101B70000C0809FFFFFF1A1C18FFFF08440AFF4367
:101B8000FFFFFFFFFFFF43290A0061626C656420CD
:101B9000286D696E2074656D702000436F6C642041
:101BA0006578747275646573206172652000207AAF
:101BB00070726F62655F7A6F66667365743D200050
:101BC0007A5F6D696E3A20202D3230207A5F6D6128
:101BD000783A20203230005A204F666673657420B0
:101BE000004E6F2063617365206C696768740A003A
:101BF0004163746976652045787472756465723ADC
:101C00002000556E6B6E6F776E20636F6D6D616E29
:101C1000643A202200526573656E643A20006F6B4F
:101C20000020746F6F206C6F6E672065787472751A
:101C300073696F6E2070726576656E7465640A00F4
:101C400020636F6C6420657874727573696F6E20A1
:101C500070726576656E7465640A00627573793AB0
:101C60002070617573656420666F7220696E70758F
:101C7000740A00627573793A207061757365642027
:101C8000666F7220757365720A00627573793A2007
:101C900070726F63657373696E670A004B494C4CD1
:101CA00020636175736564206279204B494C4C2038
:101CB000627574746F6E2F70696E0A004B494C4CDC
:101CC0002063617573656420627920746F6F206D85
:101CD00075636820696E6163746976652074696DE7
:101CE00065202D2063757272656E7420636F6D6D53
:101CF000616E643A20000000000000000000000057
:101D000000000000484200004842000080400000FF
:101D100000005761726E696E673A20486F6D696E98
:101D2000672042756D702044697669736F72203C3C
:101D300020310A000202040000A0400000A0400080
:101D400000004000009643000096430000C843FF97
:101D5000FFFF62696E004D31313720494E56414CCC
:101D6000494420444154412E004730205A257300F5
:101D7000473238205830205930004730205A2573D8
:101D800000473932205A2573204525730062696E59
:101D9000004D3234004D3233202573005425690044
:101DA0004D3130362053323535004D3130392053E6
:101DB0002569004D31393020532569004730205ABC
:101DC0002573004D31303920532569004D313930AC
:101DD00020532569004D32340047312046313030E0
:101DE000205A31302E3200473238004731204631F8
:101DF0003030205A2D3300473120583330205932AB
:101E000037302046353030300047312046313030D1
:101E1000205A333B0047312046313030205A2D3391
:101E2000004731205832373020593237302046357C
:101E30003030300047312046313030205A333B00BB
:101E400047312046313030205A2D33004731205859
:101E5000323730205933302046353030300047316A
:101E60002046313030205A333B0047312046313054
:101E700030205A2D33004731205833302059333029
:101E80002046353030300047312046313030205A3E
:101E9000333B0047312046313030205A2D33004744
:101EA00031205831353020593135302046353030E9
:101EB000300047312046313030205A333B00473123
:101EC0002046313030205A302E32004731205831F0
:101ED00035302059313530204635303030004731EB
:101EE0002046313030205A31302E323B00473239D3
:101EF0000047312046323030205A302E32004739E8
:101F00003000473238205830205930205A300047AE
:101F100031205A302E3220204631353000473238B9
:101F2000205A3000473238004D3834004731205AAB
:101F3000302E32204631353000473238004D3130B6
:101F40003920532569004D31393020532569004728
:101F50003020583130205931302046333030300075
:101F6000473020583130205931302046333030301E
:101F7000005072696E7465722073746F707065645E
:101F80002064756520746F206572726F72732E20E5
:101F900046697820746865206572726F7220616E80
:101FA0006420757365204D39393920746F2072654E
:101FB00073746172742E202854656D70657261743B
:101FC0007572652069732072657365742E20536580
:101FD000742069742061667465722072657374611F
:101FE0007274696E67290A004E6F204C696E652015
:101FF0004E756D62657220776974682063686563E9
:102000006B73756D2C204C617374204C696E653A4E
:1020100020004E6F20436865636B73756D20776990
:102020007468206C696E65206E756D6265722C2017
:102030004C617374204C696E653A20006368656377
:102040006B73756D206D69736D617463682C204CC2
:10205000617374204C696E653A20004C696E65208E
:102060004E756D626572206973206E6F74204C61CD
:102070007374204C696E65204E756D6265722B31EC
:102080002C204C617374204C696E653A20004D31F0
:102090003130004D3331004D383420582059205A0A
:1020A00020450053442072656164206572726F722E
:1020B0000A00446F6E65207072696E74696E6720E5
:1020C00066696C650A00B400B60011241FBECFEF2C
:1020D000D1E2DEBFCDBF00E00CBF15E0A0E0B2E072
:1020E000E2EFF1E702E00BBF02C007900D92AA36C3
:1020F000B107D9F72CE1AAE6B5E001C01D92A531E0
:10210000B207E1F710E1C4E6D0E100E006C0219794
:102110000109802FFE010F94D127C336D10780E03B
:102120000807A9F70F945B1E0D9465360C94000008
:102130000895FC01DB012C9180819181922728E098
:10214000AC01880F991F57FF04C0B1E28B27B0E1A3
:102150009B272150A9F79183808308958150823174
:1021600068F4E82FF0E08827E958F94C8E4F0D9479
:10217000D12780912001877F80932001089584B525
:102180008F7784BD089584B58F7D84BD0895809137
:1021900080008F77809380000895809180008F7DEC
:1021A00080938000089580918000877F80938000D5
:1021B00008958091B0008F778093B000089580914A
:1021C000B0008F7D8093B0000895809190008F774C
:1021D000809390000895809190008F7D809390006F
:1021E000089580919000877F80939000089580915A
:1021F000A0008F778093A00008958091A0008F7D2C
:102200008093A00008958091A000877F8093A00014
:102210000895809120018F77809320010895809107
:1022200020018F7D809320010895789484B5826089
:1022300084BD84B5816084BD85B5826085BD85B56A
:10224000816085BDEEE6F0E0808181608083E1E819
:10225000F0E0108280818260808380818160808351
:10226000E0E8F0E0808181608083E1EBF0E0808154
:1022700084608083E0EBF0E0808181608083E1E92D
:10228000F0E0808182608083808181608083E0E9EA
:10229000F0E0808181608083E1EAF0E0808182600B
:1022A0008083808181608083E0EAF0E080818160CA
:1022B0008083E1E2F1E080818260808380818160BF
:1022C0008083E0E2F1E0808181608083EAE7F0E0F2
:1022D000808184608083808182608083808181604E
:1022E00080838081806880831092C1000895CF929E
:1022F000DF92EF92FF920F931F93CF93DF937C01B6
:10230000EB016A0110E000E0452B31F412C00F5FD1
:102310001F4FC016D10669F0F70180819181FC0141
:102320002081318168812196C701F9011995892B96
:1023300071F7C801DF91CF911F910F91FF90EF903E
:10234000DF90CF900895FC01938D848D981720F431
:10235000891B990B019708952FE330E0291B310960
:10236000820F932F911D0895FC01918D828D9817F6
:1023700061F0A28DAE0FBF2FB11D5D968C91928D35
:102380009F5F9F73928F90E008958FEF9FEF089566
:10239000FC01918D828D981731F0828DE80FF11D2F
:1023A000858D90E008958FEF9FEF0895FC01818D5A
:1023B000228D90E0805C9F4F821B91098F7399273B
:1023C00008958BE495E1F2DF9C0181E0232B09F471
:1023D00080E00895FC01A48DA80FB92FB11DA35A68
:1023E000BF4F2C91848D90E001968F739927848F35
:1023F000A689B7892C93A089B1898C918370806458
:102400008C93938D848D981308950288F389E02D21
:1024100080818F7D80830895EF92FF920F931F93A9
:10242000CF93DF93EC01062F81E0888F9B8D8C8DFD
:10243000981789F1EB8CF12C8FEFE81AF80A8FE3EB
:10244000E822FF241E2D03C00FB607FE1CC08C8D92
:102450008117D1F3EB8DEC0FFD2FF11DE35AFF4FE8
:1024600000839FB7F894EB8EEA89FB8980818062B4
:1024700080839FBF81E090E0DF91CF911F910F910A
:10248000FF90EF900895E889F989808185FFDFCF7B
:10249000CE01A0DFDCCFE889F989808185FFCACF32
:1024A0009FB7F894EE89FF896083E889F989808174
:1024B0008370806480839FBFDDCFCF93DF93EC0177
:1024C000888D8823B1F0EA89FB89A889B989808140
:1024D00085FD03C08C9186FD0CC00FB607FCF7CFBD
:1024E000808185FFF4CF8C9185FFF1CFCE0172DF23
:1024F000EACFDF91CF91089580E090E0892B41F001
:1025000080E090E0892B21F00E940000811123C01F
:1025100080E090E0892B41F080E090E0892B21F071
:102520000E94000081111AC080E090E0892B19F010
:1025300048DF81110DC080E090E0892B41F080E000
:1025400090E0892B21F00E94000081110AC00895BB
:102550000E940000F0CF0E940000DACF0E9400002D
:10256000E3CF0C9400006F927F928F929F92AF9274
:10257000BF92CF92DF92EF92FF920F931F93CF9370
:10258000DF9300D000D0CDB7DEB79C0184E090E0AF
:1025900061E070E0DC01AB50B04FFD01459154911A
:1025A00024173507C4F06F5F7F4F0496811541E013
:1025B000940781F7E3EFF0E1859194919C01990FE5
:1025C000440B550B29833A834B835C83CA01B901C1
:1025D0000F947D2C83C061507109660F771F660FC1
:1025E000771F8B010950104FF801459154915E837C
:1025F0004D836B50704FFB0145915491FC01E950A4
:10260000F04FE590F490F801A590B490FD0105918C
:102610001491FB01C590D490241B350BC901330FD5
:10262000AA0BBB0B89839A83AB83BC83BC01CD010E
:102630000F947D2C3B014C01EA18FB089701FF0C1D
:10264000440B550B29833A834B835C83CA01B90140
:102650000F947D2C9B01AC0169827A828B829C82D3
:1026600069817A818B819C810F94DC2C5B017C01D8
:102670000C191D09C801110FAA0BBB0B89839A8382
:10268000AB83BC83BC01CD010F947D2C9B01AC01BD
:10269000A982BA82EB82FC8269817A818B819C81DA
:1026A0000F9473347B018C012D813E81032E000C2D
:1026B000440B550B29833A834B835C83CA01B901D0
:1026C0000F947D2C9B01AC01E982FA820B831C8361
:1026D00069817A818B819C810F94973369837A8396
:1026E0008B839C8369817A818B819C8126960FB62E
:1026F000F894DEBF0FBECDBFDF91CF911F910F9138
:10270000FF90EF90DF90CF90BF90AF909F908F9011
:102710007F906F9008956F927F928F929F92AF9269
:10272000BF92CF92DF92EF92FF920F931F93CF93BE
:10273000DF9300D000D0CDB7DEB79C0184E090E0FD
:1027400061E070E008C06F5F7F4F0496811541E043
:10275000940709F4A9C0DC01AB50B04FFD014591CD
:102760005491241735077CF761507109660F771F64
:10277000660F771F8B010950104FF8014591549156
:102780005E834D836B50704FFB0145915491FC016A
:10279000E950F04FE590F490F801A590B490FD0158
:1027A00005911491FB01C590D490241B350BC901F0
:1027B000330FAA0BBB0B89839A83AB83BC83BC0109
:1027C000CD010F947D2C3B014C01EA18FB089701C9
:1027D000FF0C440B550B29833A834B835C83CA015E
:1027E000B9010F947D2C9B01AC0169827A828B82A6
:1027F0009C8269817A818B819C810F94DC2C5B01A6
:102800007C010C191D09C801110FAA0BBB0B898390
:102810009A83AB83BC83BC01CD010F947D2C9B01BB
:10282000AC01A982BA82EB82FC8269817A818B81B8
:102830009C810F9473347B018C012D813E81032E8A
:10284000000C440B550B29833A834B835C83CA01EC
:10285000B9010F947D2C9B01AC01E982FA820B83B4
:102860001C8369817A818B819C810F949733698362
:102870007A838B839C8369817A818B819C81269664
:102880000FB6F894DEBF0FBECDBFDF91CF911F9181
:102890000F91FF90EF90DF90CF90BF90AF909F90FF
:1028A0008F907F906F900895E3EFF0E18591949180
:1028B0009C01990F440B550B29833A834B835C830E
:1028C000CA01B9010F947D2CD2CF880F991F880FB0
:1028D000991FFC01E353F54F40815181628173815F
:1028E000885E954EFC014083518362837383E0913F
:1028F000CB0AF091CC0A82899389A489B589809307
:10290000CB199093CC19A093CD19B093CE190895FB
:102910008091C61980FF24C089988FEF8093180298
:102920008091C61981FF24C08F9A8FEF809319027E
:102930008091C6199FB782FF24C0F89480910B0143
:10294000826080930B019FBF8FEF80931A0280916A
:10295000C61983FF24C016988FEF80931B02089539
:10296000899A81E0809318028091C61981FDDCCF9D
:102970008F9881E0809319028091C6199FB782FDDC
:10298000DCCFF89480910B018D7F80930B019FBF6A
:1029900081E080931A028091C61983FDDCCF169ADC
:1029A00081E080931B0208950F931F93CF930091B2
:1029B000CB0A1091CC0AC0919E19F80182819381B3
:1029C000A481B581181619061A061B0624F48091F5
:1029D000C61980FD44C0F80186819781A085B18524
:1029E000181619061A061B0624F48091C61981FDD3
:1029F00022C0F80182859385A485B585181619062D
:102A00001A061B0694F48091C61982FF0EC08091AD
:102A1000BD0B882351F089B183FBC2F9C0939E1985
:102A200080919D198C2382FD30C0C0939D19CF9158
:102A30001F910F9108958091030181FBC1F9C0930B
:102A40009E1980919D198C2381FFD3CF8091B80B63
:102A500082608093B80B81E090E037DFCACF8CB101
:102A600085FB882780F9CE7FC827C0939E19809167
:102A70009D198C2380FFAFCF8091B80B816080932C
:102A8000B80B90E080E021DFA6CF8091B80B846086
:102A90008093B80B82E090E018DFC7CF089590E0F4
:102AA00080E008958091EF199091F0195CDD6093BA
:102AB0004715709348158093491590934A15809156
:102AC000ED199091EE1927DE6093E00A7093E10A08
:102AD0008093E20A9093E30AA8958FB7F894109236
:102AE000F1198FBF0895CF93DF9300D00F92CDB728
:102AF000DEB79C0150E040E029833A834B835C833E
:102B00004AE069817A818B819C810E9463F980917E
:102B1000C00085FFFCCF8DE08093C6008091C0008F
:102B200085FFFCCF8AE08093C6000F900F900F9036
:102B30000F90DF91CF9108958F929F92AF92BF92A5
:102B4000CF92DF92EF92FF920F931F93CF93DF9379
:102B500000D000D0CDB7DEB78C016D837E83DC0161
:102B600097962D913D914D915C919A9729833A8347
:102B70004B835C83ED81FE81C7A0D0A4E1A4F2A4C5
:102B80009601A70169817A818B819C810F94772CB2
:102B900087FF6CC029813A814B815C81CA01B901F0
:102BA0000F94DC2C4B015C01F80183A994A9A5A921
:102BB000B6A99C01AD01505829833A834B835C83AD
:102BC000CA01B9010F949733D8019F962D913D9179
:102BD0004D915C91D29769837A838B839C836981C1
:102BE0007A818B819C810F94DC2C9B01AC018982C2
:102BF0009A82AB82BC8269817A818B819C810F949D
:102C0000963369837A838B839C8369817A818B81F4
:102C10009C810F9404365B018C019B01AC01C9823D
:102C2000DA82EB82FC8269817A818B819C810F94AC
:102C3000772C87FF02C0560187019501A801C98240
:102C4000DA82EB82FC8269817A818B819C810F948C
:102C5000772C882359F0C501D801ED81FE8187A327
:102C600090A7A1A7B2A780818160808326960FB626
:102C7000F894DEBF0FBECDBFDF91CF911F910F91B2
:102C8000FF90EF90DF90CF90BF90AF909F908F908C
:102C90000895AF92BF92CF92DF92EF92FF920F937F
:102CA0001F93CF93DF930F92CDB7DEB76C018B01EB
:102CB0005901FC01808191817B01E40EF51E0F9486
:102CC00014338983F80181938F01BE016F5F7F4FB9
:102CD000C5012FDAF601808191810196918380836D
:102CE0000E151F0561F70F90DF91CF911F910F9186
:102CF000FF90EF90DF90CF90BF90AF9008952F920C
:102D00003F924F925F926F927F928F929F92AF927B
:102D1000BF92CF92DF92EF92FF920F931F93CF93C8
:102D2000DF93CDB7DEB7A1970FB6F894DEBF0FBE25
:102D3000CDBF88A399A37B016A01A8A1B9A1D796A9
:102D40006D917D918D919C91DA970F947B2C5B0115
:102D50008C01F70120813181428153816D83BE82D4
:102D60008F8318876D817E818F8198850F94DC2CED
:102D70006D837E838F8398876D817E818F81988517
:102D80000F945D346D837E838F8398876D817E8100
:102D90008F8198850F94E0344B017C01D6012D91F1
:102DA0003D914D915C91AD82BE820F8318876D81FC
:102DB0007E818F8198850F94DC2C6D837E838F8339
:102DC00098876D817E818F8198850F945D346D83A6
:102DD0007E838F8398876D817E818F8198850F9404
:102DE000E03489869A86EB86FC8629853A854B8570
:102DF0005C85283731054105510540F428E730E06E
:102E000040E050E029873A874B875C876D837E835B
:102E10008F8398878D819E81AF81B8858837910592
:102E2000A105B10540F428E730E040E050E02D83F3
:102E30003E834F835887E8A1F9A1ED5BFF4F808166
:102E40009181A281B3818D879E87AF87B88BBC01AA
:102E5000CD010F947D2C3B014C0169857A858B85D2
:102E60009C850F947B2C698B7A8B8B8B9C8B20E0C1
:102E700030E0A90169827A828B829C8269817A81A1
:102E80008B819C810F94772C882309F4F5C19501DF
:102E9000A801A982BA820B831C8369817A818B8104
:102EA0009C810F94DC2C6B017C0129893A894B8928
:102EB0005C8999899983AA89AA83BB89BB83EC8998
:102EC000EC8369817A818B819C810F94DC2C9B013E
:102ED000AC01C982DA82EB82FC8269817A818B81C2
:102EE0009C810F9496336B017C019301A40169824C
:102EF0007A828B829C8269817A818B819C810F94FA
:102F000097339B01AC01C982DA82EB82FC82698132
:102F10007A818B819C810F94733469837A838B834C
:102F20009C8369817A818B819C810F945D34698354
:102F30007A838B839C8369817A818B819C810F94B6
:102F4000DB346B017C01C88ED98EEA8EFB8E2D8519
:102F50003E854F85588950954095309521953F4F36
:102F60004F4F5F4F29833A834B835C83CA01B9017A
:102F70000F947D2C1B012C016D817E818F819885A2
:102F80000F947B2C6D877D8B8E8B9F8B20E030E0A8
:102F9000A90129823A824B825C8269817A818B8184
:102FA0009C810F94772C40E050E0BA01882309F40B
:102FB00062C02D853D894E895F898D8589839D8974
:102FC0009A83AE89AB83BF89BC8369817A818B8107
:102FD0009C810F94DC2C6C8F7D8F8E8F9F8F950141
:102FE000A801A982BA820B831C8369817A818B81B3
:102FF0009C810F94DC2C9B01AC010C8D09831D8DF1
:103000001A830E8D0B831F8D1C8369817A818B81BE
:103010009C810F9496335B018C019101A20129825E
:103020003A824B825C8269817A818B819C810F9488
:1030300097339B01AC01A982BA820B831C836981FF
:103040007A818B819C810F94733469837A838B831B
:103050009C8369817A818B819C810F940C35698373
:103060007A838B839C8369817A818B819C810F9485
:10307000DB34AB01BC01A8A1B9A152962D903D90C3
:103080004D905C905597D201C101088D198D2A8D04
:103090003B8D801B910BA20BB30B841B950BA60BD6
:1030A000B70BB7FD3EC02FB7F894E8A1F9A1308166
:1030B00033FD1DC0C68AD78AE08EF18E8C0D9D1D12
:1030C000AE1DBF1D828F938FA48FB58F89859A8582
:1030D000AB85BC8583AF94AFA5AFB6AFFF968D81AE
:1030E0009E81AF81B88580839183A283B3832FBFF4
:1030F000A1960FB6F894DEBF0FBECDBFDF91CF9182
:103100001F910F91FF90EF90DF90CF90BF90AF9005
:103110009F908F907F906F905F904F903F902F90F7
:10312000089520E030E0A90169827A828B829C8236
:1031300069817A818B819C810F94772C882309F493
:10314000ABC0C201B1010F947B2C7B018C019301B8
:10315000A40169817A818B819C810F9497339B01B3
:10316000AC01E982FA820B831C8369817A818B81AD
:103170009C810F94DC2C7B018C0129893A894B8935
:103180005C89898989839A899A83AB89AB83BC8955
:10319000BC8369817A818B819C810F94DC2C9B019B
:1031A000AC01E982FA820B831C8369817A818B816D
:1031B0009C810F9496337B018C012D853D894E892E
:1031C0005F89ED85E983FD89FA838E898B839F89E9
:1031D0009C8369817A818B819C810F94DC2C9B017B
:1031E000AC01E982FA820B831C8369817A818B812D
:1031F0009C810F9497337B018C0120E030E040E804
:1032000050E469827A828B829C8269817A818B8187
:103210009C810F94DC2C9B01AC01E982FA820B8328
:103220001C8369817A818B819C810F9473346983BB
:103230007A838B839C8369817A818B819C810F94B3
:103240005D3469837A838B839C8369817A818B81E6
:103250009C810F94DB346B017C01F7FC19C0D70112
:10326000C60182159305A405B50570F072016101D0
:1032700080E090E0DC0117CFC12CD12C7601188EB4
:10328000198E1A8E1B8E63CE80E090E0DC010BCF8E
:10329000C12CD12C7601E3CFC12CD12C760180E05A
:1032A00090E0DC01DECF7F928F929F92AF92BF922F
:1032B000CF92DF92EF92FF920F931F93CF93DF9302
:1032C0000F92CDB7DEB75C014A01E22E732E8091DA
:1032D0009C1981112AC0F501008111816B01860EB4
:1032E000971EF601F1906F01F982C8010F94143313
:1032F000F81651F06F2DC8010F941C33C8010F94BC
:1033000014339981891320C0BE016F5F7F4F8E2DCA
:10331000972D0E949910F501008111810F5F1F4FB9
:10332000118300838C149D04E1F60F90DF91CF91FF
:103330001F910F91FF90EF90DF90CF90BF90AF90D3
:103340009F908F907F900895E2E4F5E1849103E4EB
:1033500015E1882341F00E9410FBF80184910F5F72
:103360001F4F8111F8CFE1ECF2E0849102EC12E002
:10337000882341F00E9410FBF80184910F5F1F4FDA
:103380008111F8CF81E080939C19CFCF0F931F93C9
:10339000CF93DF9380913419853A29F0DF91CF9153
:1033A0001F910F910895909132199330B8F32AE547
:1033B00020938219809383199093841980913519F1
:1033C00080938519803809F448C0933009F47EC091
:1033D000823809F457C0943089F4833879F48091A5
:1033E000361990913719982789279827909387192C
:1033F0008093861980913A1980938819C3E8D9E19E
:103400006AE500E61FEF025E184101C069918BE496
:1034100095E102D88091321990E0029698012C0F24
:103420003D1F8217930794F780E5E2E3F9E1DF019E
:103430001D928A95E9F7E2E8F9E18AE1DF011D9240
:103440008A95E9F78AE58093331985EA80933419E0
:10345000DF91CF911F910F9108958091361980933C
:103460008619EEE3F9E1A7E8B9E1892F90E0880F2A
:10347000991F865C964E208132962D93E817F907A6
:10348000D1F7BCCF20913619309137193227232735
:1034900032273093871920938619292F2350330B15
:1034A000C901A8E8B9E130E020E0F901EE7FE25C73
:1034B000F64E408151815C9311964C9311972E5F8B
:1034C0003F4F12962817390784F398CF813879F047
:1034D000823809F093CF8091361990913719982747
:1034E00089279827909387198093861987CF809191
:1034F00036198093861980913A19809387197ECF67
:1035000090933F1980933E1985E08093321982E8A9
:1035100080933519409336195093371960933819B1
:1035200070933919809133198A3509F008952ECF97
:103530008F929F92AF92BF92CF92DF92EF92FF92C3
:103540000F931F93CF93DF9300D000D000D00F9242
:10355000CDB7DEB7E0904515F090461520914715A0
:10356000309148154091491550914A152D833E835D
:103570004F835887C7010F2C000CAA0BBB0B898304
:103580009A83AB83BC83BC01CD010F947D2C2D812C
:103590003E814F81588569837A838B839C836981BF
:1035A0007A818B819C810F9496338B018A879987CE
:1035B000CB01AA85B9858093501A9093511AA09394
:1035C000521AB093531A20ED3CEC4CE45DE3609149
:1035D00041157091421580914315909144150F94B7
:1035E000DC2C5B016C0120914C1A30914D1A4091FA
:1035F0004E1A50914F1A6D817E818F8198850F945C
:1036000096339B01AC01A982BA82CB82DC826981AC
:103610007A818B819C810F94DC2C5B016C0123E30C
:1036200033E343E75FE36091481A7091491A809150
:103630004A1A90914B1A0F94DC2C9B01AC01A98281
:10364000BA82CB82DC8269817A818B819C810F94E2
:1036500097336093481A7093491A80934A1A90934B
:103660004B1A2D813E814F81588520934C1A3093FF
:103670004D1A40934E1A50934F1A8091461A9091CA
:10368000471A892B41F4CA01B9010F94DB347093B6
:10369000471A6093461AD090401520E030E0A90107
:1036A00009831A838A858B8399859C8369817A81B2
:1036B0008B819C810F94772C18160CF002C1B2E01C
:1036C000DB1609F40EC120E030E040E251E409834A
:1036D0001A838A858B8399859C8369817A818B8102
:1036E0009C810F94BE35181624F581E08093451A0D
:1036F000C12CD12C4FE7E42E53E4F52EC982DA8297
:10370000EB82FC8269817A818B819C812A960FB63B
:10371000F894DEBF0FBECDBFDF91CF911F910F9107
:10372000FF90EF90DF90CF90BF90AF909F908F90E1
:10373000089520E030E040E251EC09831A83AA8525
:10374000AB83B985BC8369817A818B819C810F941D
:10375000772C87FDAEC08091451590914615892B39
:1037600009F4A7C08091451A811131C18090411A96
:103770009090421AA090431AB090441A20913815A4
:103780003091391540913A1550913B1509831A83B0
:103790008A858B8399859C8369817A818B819C81C1
:1037A0000F94DC2C6B017C01A501940169817A8165
:1037B0008B819C810F9497334B015C01CB01D50128
:1037C0008093411A9093421AA093431AB093441ADB
:1037D000209134153091351540913615509137159B
:1037E00089829A82AB82BC8269817A818B819C8139
:1037F0000F94DC2C9601A70169837A838B839C83C9
:1038000069817A818B819C810F9497332091481A2A
:103810003091491A40914A1A50914B1A69837A8320
:103820008B839C8369817A818B819C810F949633F1
:103830006B017C0120E030E04FE753E46983DA82DA
:103840008B83FC8269817A818B819C810F94BE3548
:1038500020E030E0A90118160CF097C009831A8304
:103860008A858B8399859C8369817A818B819C81F0
:103870000F94BE3518160CF0B0C098014A855985D2
:1038800089829A82AB82BC8269817A818B819C8198
:103890000F9496336093411A7093421A8093431A9F
:1038A0009093441AC12CD12C2FE7E22E33E4F32E4F
:1038B00025CF81E08093451AC12CD12CE12CF12C2D
:1038C0001DCFA1E0DA12FBCE80913E1544E150E11C
:1038D00060E070E0882309F450C087E090E010DEDB
:1038E00031C0EF28C1F52091461A3091471A8BEF6D
:1038F0009FEF821B930B9C01990F440B550B29835F
:103900003A834B835C83CA01B9010F947D2C9B01E0
:10391000AC0109831A838A858B8399859C8369818D
:103920007A818B819C810F94BE3587FDCCCE8091AE
:103930003E1544E150E160E070E0882311F189E038
:1039400090E0DEDD80EA9FE090933D1580933C158A
:1039500010924015B8CE20E030E0A90109831A8307
:10396000AA85AB83B985BC8369817A818B819C816F
:103970000F94BE3587FDA7CEDACF83E190E0C0DD9E
:10398000E1CF85E190E0BCDDDDCFC982DA82EB8258
:10399000FC8269817A818B819C810F94772C87FFCF
:1039A000ADCE20E030E0A90109831A83AA85AB835C
:1039B000B985BC8369817A818B819C810F94772C36
:1039C00087FD12C0C12CD12CE12CF12C97CE109286
:1039D000451A812C912C5401D1CEC12CD12C8FE7CA
:1039E000E82E93E4F92E8ACE98014A85598589827A
:1039F0009A82AB82BC8269817A818B819C810F948F
:103A000096336093411A7093421A8093431A9093AD
:103A1000441AC12CD12CE12CF12C70CE81E09AE516
:103A200090933F1980933E19709341196093401908
:103A300087E08093321982E88093351984E890E01A
:103A4000A0E0B0E08093361990933719A09338190D
:103A5000B0933919809133198A3509F0089596CCBD
:103A6000EF92FF920F931F93CF93DF93FC018A0194
:103A7000DC010D900020E9F71197CD018E1B9F0B03
:103A8000EA17FB0709F441C04AE54093821945EA69
:103A90004093831943E0480F4093841942E84093D0
:103AA000851910270127102710938719009386196D
:103AB000A8E8B9E14AE55FEF425E584121912D93B4
:103AC0009A012A0F3B1F28173907C4F38C010B5F9B
:103AD0001F4FC3E8D9E16AE580E69FEF9C01225EB3
:103AE0003841790101C069918BE495E10E940C1283
:103AF000C7018C0F9D1F08171907ACF7E2E8F9E121
:103B00008AE1DF011D928A95E9F7DF91CF911F913C
:103B10000F91FF90EF9008959F92AF92BF92CF9236
:103B2000DF92EF92FF920F931F93CF93DF9300D01A
:103B300000D000D00F92CDB7DEB780913B029091BC
:103B40003C02A0913D02B0913E0289839A83AB83EF
:103B5000BC838091530F9091540FA091550FB09159
:103B6000560F8D839E83AF83B88729813A814B811D
:103B70005C81CA01B9010F94463681114CC029817C
:103B80003A814B815C816D817E818F8198850F9414
:103B900096336A87B72EA82E992E20E030E0A9012F
:103BA00069837A838B839C8369817A818B819C81F1
:103BB0000F94772C882379F183E1E82E8FE0F82E9B
:103BC000670194E09987F60181919191A191B1915A
:103BD0006F0189839A83AB83BC838F0104501109E1
:103BE0002A853B2D4A2D592DBC01CD010F949633CA
:103BF000D8016D937D938D939C931397B985B150A4
:103C0000B987B111E0CFE0E1EE0EF11CF3E5EF165C
:103C1000FFE0FF06A9F68D819E81AF81B885809374
:103C20003B0290933C02A0933D02B0933E022A9641
:103C30000FB6F894DEBF0FBECDBFDF91CF911F91BD
:103C40000F91FF90EF90DF90CF90BF90AF909F903B
:103C50000895CF93DF93282F30E0F901E75DFC4E04
:103C60008491F901ED51FD4ED491F901E356FD4ED9
:103C7000C491CC23C9F0811114C0EC2FF0E0EE0FF9
:103C8000FF1FED57FD4EA591B491EC91ED2381E01E
:103C900090E019F0DF91CF91089580E0DF91CF910E
:103CA00008950E94AE10E9CF80E090E0DF91CF91BF
:103CB00008951F93CF93DF93D62F282F30E0F9017B
:103CC000E75DFC4E8491F901ED51FD4E1491F9012F
:103CD000E356FD4EC491CC23A1F081111BC0EC2F03
:103CE000F0E0EE0FFF1FE759FD4EA591B4918FB79D
:103CF000F894D1110AC09C91E12FE095E923EC934F
:103D00008FBFDF91CF911F910895EC91E12BEC9340
:103D10008FBFF7CF0E94AE10E2CFCF93DF9390E03A
:103D2000FC01ED51FD4E249183569D4EFC01849182
:103D30008823D1F090E0880F991FFC01E15BFD4ED4
:103D4000A591B491FC01E759FD4EC591D491611143
:103D50000EC09FB7F8948C91E22FE0958E238C9340
:103D60002881E223E8839FBFDF91CF9108958FB729
:103D7000F894EC91E22BEC938FBFDF91CF910895F3
:103D80001F93CF93DF93182FEB0161E0C6DF2097DD
:103D900071F0CF3FD105C1F0E12FF0E0E75DFC4EBF
:103DA000E491E150E23148F0C038D1056CF460E0B4
:103DB000812FDF91CF911F917CCFF0E08827E757CB
:103DC000F94C8E4F0D94D12761E0812FDF91CF9177
:103DD0001F916FCF84B5806884BDC7BDDF91CF913F
:103DE0001F91089584B5806284BDC8BDF7CF8091CE
:103DF0008000806880938000D0938900C093880001
:103E0000EDCF80918000806280938000D0938B0002
:103E1000C0938A00E3CF8091800088608093800007
:103E2000D0938D00C0938C00D9CF8091B000806872
:103E30008093B000C093B300D1CF8091B000806276
:103E40008093B000C093B400C9CF80919000806887
:103E500080939000D0939900C0939800BFCF809139
:103E60009000806280939000D0939B00C0939A0052
:103E7000B5CF80919000886080939000D0939D0092
:103E8000C0939C00ABCF8091A00080688093A0007D
:103E90008091A0008F7B8093A000D093A900C09355
:103EA000A8009CCF8091A00080628093A000D09356
:103EB000AB00C093AA0092CF8091A000886080934D
:103EC000A000D093AD00C093AC0088CF80912001BA
:103ED000806880932001D0932901C09328017ECF70
:103EE00080912001806280932001D0932B01C093A8
:103EF0002A0174CF80912001886080932001D093A3
:103F00002D01C0932C016ACF0F931F938B019C014D
:103F10009FB7F8944091291A50912A1A60912B1A50
:103F200070912C1A86B5A89B06C08F3F21F04F5F79
:103F30005F4F6F4F7F4F9FBF762F652F542F4427C2
:103F4000480F511D611D711D440F551F661F771FBE
:103F5000440F551F661F771F0115110521053105F7
:103F6000C9F1FFB7F8948091291A90912A1AA0916B
:103F70002B1AB0912C1AE6B5A89B05C0EF3F19F09B
:103F80000196A11DB11DFFBFBA2FA92F982F882719
:103F90008E0F911DA11DB11D880F991FAA1FBB1F58
:103FA000880F991FAA1FBB1F841B950BA60BB70B6D
:103FB000883E9340A105B105A0F2015011092109E5
:103FC000310948515C4F6F4F7F4F01151105210595
:103FD000310539F61F910F9108950F931F93CF93D9
:103FE0008C0184E080935A0F1092590F649947C056
:103FF000C1E06FE070E080E090E086DFC093590F91
:1040000064993BC0CF5FC333A1F70115110559F186
:104010000093570F8091331990913E1521E03AE5B6
:1040200030933F1920933E192EE430E0992311F08C
:1040300026E230E0309341192093401997E09093A5
:10404000321992E89093351944E850E060E070E04E
:104050004093361950933719609338197093391972
:104060008A3509F493D91092590F10925A0F81E0B2
:1040700090E0CF911F910F910895C13334F61092C3
:10408000590F10925A0F90E080E0CF911F910F913D
:104090000895CF93DF9300D00F92CDB7DEB78FB7DF
:1040A000F8942091251A3091261A4091271A5091A0
:1040B000281A29833A834B835C838FBF69817A8175
:1040C0008B819C810F900F900F900F90DF91CF917B
:1040D0000895CF93DF9300D000D00F920F92CDB709
:1040E000DEB7209147153091481540914915509100
:1040F0004A1529833A834B835C83809145159091BF
:10410000461506979C01990F440B550B2D833E8352
:104110004F835887CA01B9010F947D2C9B01AC01D4
:1041200069817A818B819C810F94772C87FD11C0E6
:104130001092541A1092551A1092561A1092571A39
:1041400028960FB6F894DEBF0FBECDBFDF91CF919A
:10415000089520E030E040E050E469817A818B816D
:104160009C810F94973369837A838B839C836981C5
:104170007A818B819C810F94E0347093591A6093FB
:10418000581A87DFDC01CB01805E914BAF4FBF4FE8
:104190008093541A9093551AA093561AB093571AB5
:1041A000CFCF80912816909129160197029710F091
:1041B00080E0089510922916109228166ADF609305
:1041C000321670933316809334169093351681E02F
:1041D0000895FF920F931F93CF93DF9300D000D0E9
:1041E000CDB7DEB78C0155DF6D837E83FF24FA9453
:1041F000FEBC0DB407FEFDCF8EB58F3F81F049DFC9
:1042000069837A838B839C8389819A812D813E8106
:10421000821B930B8017910758F380E001C081E067
:1042200026960FB6F894DEBF0FBECDBFDF91CF91BB
:104230001F910F91FF900895CF92DF92EF92FF921E
:104240001F93CF93DF93EC01162F69017A019A81B6
:10425000892F806A86958CBD90FD3FC081E09630A5
:10426000E1F18DBD60E0888124DD8CE291E0B1DF79
:10427000812F80648EBD0DB407FEFDCF88E190E0F4
:10428000B701A601082E04C0769567955795479506
:104290000A94D2F74EBD0DB407FEFDCF0897883FB4
:1042A0002FEF920769F785E9112319F087E8183095
:1042B00029F58EBD0DB407FEFDCF1C30C1F090E096
:1042C0002FEF2EBD0DB407FEFDCF8EB58B8387FF7C
:1042D00006C09F3F21F09F5FF4CF80E0C2CFDF9107
:1042E000CF911F91FF90EF90DF90CF9008958FEFC7
:1042F0008EBD0DB407FEFDCF8EB5E1CF8FEFD9CFC8
:10430000CF92DF92EF92FF920F931F93CF93DF93A1
:10431000EC016A017B0189018C81833039F089E0ED
:10432000CC0CDD1CEE1CFF1C8A95D1F7A701960171
:1043300068E1CE0181DF882381F086E0898388816E
:1043400061E0B7DC10E0812FDF91CF911F910F91D9
:10435000FF90EF90DF90CF9008958EEF8EBDF80123
:1043600098013E5F0DB407FEFDCF80818EBD0DB478
:1043700007FEFDCF81818EBD3296E217F30791F7DC
:104380000DB407FEFDCF8FEF8EBD0DB407FEFDCF40
:104390008FEF8EBD0DB407FEFDCF8FEF8EBD0DB438
:1043A00007FEFDCF8EB58B838F718530F1F488E5E4
:1043B00092E00FDF182F811104C087E18983888183
:1043C000BFCF20E030E0A9016DE0CE0135DF8111E3
:1043D00016C08FEF8EBD0DB407FEFDCF9EB5888150
:1043E000992351F096E19983ABCF83E1898361E012
:1043F00088815FDC8881A4CF61E05BDCA4CF888109
:10440000F1CFEF92FF920F931F93CF93DF9300D0E2
:104410000F92CDB7DEB7809128169091291601979B
:10442000C9F1409132165091331660913416709153
:10443000351680912E1690912F16A0913016B091BE
:1044400031167A018B01E81AF90A0A0B1B0BC80115
:10445000B70128EE33E040E050E00F94393380910B
:104460002A1690912B16A0912C16B0912D16790139
:104470008A01E80EF91E0A1F1B1FC801B7010F9021
:104480000F900F900F90DF91CF911F910F91FF90A0
:10449000EF900895FEDD462F572FBC01CACF8091C3
:1044A0002816909129168130910559F1029759F1FA
:1044B00010922E1610922F1610923016109231165E
:1044C000109232161092331610923416109235163E
:1044D00010922A1610922B1610922C1610922D164E
:1044E00081E090E09093291680932816D2DD6093A6
:1044F0002E1670932F16809330169093311681E00C
:10450000089580E008957DDF60932A1670932B163E
:1045100080932C1690932D16E3CF809128169091BE
:104520002916019711F080E0089582E090E09093C1
:10453000291680932816ADDD6093321670933316DA
:10454000809334169093351681E00895CF92DF92D0
:10455000EF92FF920F931F93CF93DF9300D000D081
:10456000CDB7DEB78D839E836A017B018901ED8122
:10457000FE818481833039F089E0CC0CDD1CEE1C97
:10458000FF1C8A95D1F7A701960161E18D819E817B
:1045900053DE8823B9F084E0ED81FE81818361E000
:1045A000808187DB80E026960FB6F894DEBF0FBED1
:1045B000CDBFDF91CF911F910F91FF90EF90DF90D2
:1045C000CF90089566DD7B01DD24DA94DEBC0DB466
:1045D00007FEFDCF8EB5ED81FE8183838F3FE1F431
:1045E00058DD69837A838B839C8389819A818E19B4
:1045F0009F098D32914050F381E1ED81FE818183ED
:1046000061E0ED81FE81808154DB8FEF8EBD0DB4C2
:1046100007FEFDCF80E0C7CF8E3F69F58FEF8EBDDF
:10462000F801D801A150BE4F9FEF0DB407FEFDCF9A
:104630008EB581939EBDEA17FB07B9F70DB407FE4F
:10464000FDCF8EB58C938FEF8EBD0DB407FEFDCFE1
:104650008EB58FEF8EBD0DB407FEFDCF8EB561E038
:10466000ED81FE81808125DB8FEF8EBD0DB407FECD
:10467000FDCF81E098CF8FE0ED81FE818183C0CFB7
:104680001F921FB61F9211242F933F938F939F93D6
:10469000AF93BF938091251A9091261AA091271A63
:1046A000B091281A3091241A23E0230F2D3750F5AA
:1046B0000196A11DB11D2093241A8093251A909371
:1046C000261AA093271AB093281A8091291A90913C
:1046D0002A1AA0912B1AB0912C1A0196A11DB11D76
:1046E0008093291A90932A1AA0932B1AB0932C1A0C
:1046F000BF91AF919F918F913F912F911F901FBEBE
:104700001F90189526E8230F0296A11DB11DD3CF47
:104710001F920F920FB60F9211240BB60F922F9388
:104720003F934F935F936F937F938F939F93AF9339
:10473000BF93EF93FF938BE495E10E94EA11FF9101
:10474000EF91BF91AF919F918F917F916F915F9109
:104750004F913F912F910F900BBE0F900FBE0F9076
:104760001F9018952F932FB72F932BB72F938F93BD
:104770009F93EF93FF93E0915B15F0915C1580811F
:10478000E0916115F091621582FD1BC0208180913E
:1047900064158F5F8F7390916515891741F0E091D3
:1047A0006415F0E0E55BFA4E258F80936415FF9168
:1047B000EF919F918F912F912BBF2F912FBF2F9111
:1047C00018958081F4CFCF92DF92EF92FF92CF9332
:1047D000DF9300D00F92CDB7DEB7C090E00AD09043
:1047E000E10AE090E20AF090E30A8091020B9091D6
:1047F000030B06979C01990F440B550B29833A83B1
:104800004B835C83CA01B9010F947D2CA7019601EB
:1048100069837A838B839C8369817A818B819C8174
:104820000F94BE3518169CF01092DF191092E01903
:104830001092E1191092E2190F900F900F900F90C3
:10484000DF91CF91FF90EF90DF90CF90089520E01F
:1048500030E040E050E4C701B6010F94973369831C
:104860007A838B839C8369817A818B819C810F946D
:10487000E0347093E4196093E3190BDCDC01CB01A5
:10488000805A9541AF4FBF4F8093DF199093E01945
:10489000A093E119B093E219CFCF1092DD0A1092E4
:1048A00046151092451515DC1092030B1092020B61
:1048B0008ADF77DC0EDC1092DF0A2C981092030B53
:1048C0001092020B1092DE0A9FB7F894E2E0F1E03A
:1048D00080818F7D80839FBF0895EBE8F5E184910F
:1048E000CCE8D5E1882339F00E9410FBFE018491C9
:1048F00021968111F9CFEBE6F5E18491CCE6D5E183
:10490000882339F00E9410FBFE01849121968111C9
:10491000F9CFC3DF0E9435A4FFEF2BE48DE1F15006
:1049200020408040E1F700C00000F8949FEFE4E3EE
:10493000FCE09150E040F040E1F700C00000ADDF46
:10494000A895FECFFF920F931F93CF93DF9300D0D4
:104950000F92CDB7DEB7F82E69837A8380913F023C
:10496000882309F44CC0EBE8F5E184910CE815E1EB
:10497000882341F00E9410FBF80184910F5F1F4FC4
:104980008111F8CF29813A812F5F3F4FE981FA8168
:104990008491882361F03A8329830E9410FBE98186
:1049A000FA8184913196FA83E9838111F6CFEDE49F
:1049B000F5E18491882371F02EE435E13A8329836F
:1049C0000E9410FBE981FA8184913196FA83E98390
:1049D0008111F6CFF7FE1DC0E8E4F5E1849188234C
:1049E00071F0A9E4B5E1BA83A9830E9410FBE981C3
:1049F000FA8184913196FA83E9838111F6CF0F9081
:104A00000F900F900F90DF91CF911F910F91FF901A
:104A100008958F2DFF0C990BAA0BBB0B89839A83EA
:104A2000AB83BC83BC01CD010E94DCF98AE00F900E
:104A30000F900F900F90DF91CF911F910F91FF90EA
:104A40000C9410FB1F920F920FB60F9211240BB60D
:104A50000F92CF92DF92EF92FF920F931F932F93BB
:104A60003F934F935F936F937F938F939F93AF93F6
:104A7000BF93CF93DF93EF93FF938091011A81113E
:104A800051C081E08093011A80916E008B7F8093EA
:104A90006E007894809120028F3708F45EC08F57A3
:104AA0009091DF0A9093001A91117DC02C989091FB
:104AB000DE0A9093FF192FB7992309F459C0F8948F
:104AC000909102019062909302012FBF8F5F8093BB
:104AD0002002C0911E02D0911F02C230D10509F4FC
:104AE00001C108F04DC0CD2B09F474C020917800AD
:104AF000309179008091F4199091F519820F931FEC
:104B00009093F5198093F419C2E0D0E0D0931F027E
:104B1000C0931E02F8941092011A80916E00846076
:104B200080936E00FF91EF91DF91CF91BF91AF9194
:104B30009F918F917F916F915F914F913F912F91B5
:104B40001F910F91FF90EF90DF90CF900F900BBED1
:104B50000F900FBE0F901F9018959091001A891713
:104B600008F02C989091FF19891708F4AFCF2FB750
:104B7000F894909102019F7D909302012FBFA6CFE0
:104B8000C330D105B1F0C430D10509F0C4C0809163
:104B9000FE19882351F081508093FE198111B6CF00
:104BA000D0E0C0E0B3CF2C9A82CF85E08093FE198D
:104BB000ADCF20917800309179008091F2199091D9
:104BC000F319820F931F9093F3198093F219C4E0A5
:104BD000D0E09CCF88E080937B0085E480937C00CC
:104BE00080917A00806480937A0020911E02309137
:104BF0001F02C901019665E070E00F94BE27EC0129
:104C0000232B09F083CF80911D028F5F80311CF42C
:104C100080931D027BCF10921D028091F119882391
:104C200009F465C00091EF191091F019C090ED19C9
:104C3000D090EE19E4EFF9E18AE0DF011D928A9548
:104C4000E9F71092F3191092F219E0902302F09014
:104C500024028091041A9091051A081719079CF5EF
:104C600080914515909146151816190644F100914A
:104C70002102109122028091021A9091031A8C1540
:104C80009D0564F08091020B9091030B1816190694
:104C90000CF03CCF67E171E18FEF54DEC016D10616
:104CA0000CF434CF8091020B9091030B1816190667
:104CB0000CF02CCF65E071E18FEF44DE27CF67E188
:104CC00071E180E03FDEE016F1068CF6809145153B
:104CD000909146151816190654F665E071E180E0CA
:104CE00031DEC5CF88E080937B0086E477CF0091EA
:104CF000F4191091F5191093F0190093EF19C09061
:104D0000F219D090F319D092EE19C092ED1981E00A
:104D10008093F1198FCFCE01019665E070E00F947A
:104D2000BE27EC01F3CE2F923F924F925F926F928B
:104D30007F928F929F92AF92BF92CF92DF92EF922B
:104D4000FF920F931F93CF93DF93CDB7DEB7639797
:104D50000FB6F894DEBF0FBECDBF3C016D837E83DE
:104D60002F833B874C875D87302E212E2601AE8610
:104D7000BF865401002711270C191D09000F111FB0
:104D8000000F111F98012B51364E69019701432DD9
:104D9000522DD6016D917D918D919C910F94772C20
:104DA00081118BC0F301808191818230910509F0DE
:104DB00066C0D6012D913D914D915C9129833A8336
:104DC0004B835C839501BB0C440B550B288B398BB3
:104DD0004A8B5B8BCA01B9010F947D2C9B01AC01FE
:104DE00069817A818B819C810F9496332F813B85D9
:104DF0004C855D8569837A838B839C8369817A8105
:104E00008B819C810F94772C18160CF096C041D999
:104E100069837A838B839C83ED81FE81808191817C
:104E2000A281B38129813A814B815C81281B390B96
:104E30004A0B5B0BDA01C901B7FD26C083E090E0A5
:104E4000D3018D939C9365EF70E1842D63960FB62B
:104E5000F894DEBF0FBECDBFDF91CF911F910F91B0
:104E6000FF90EF90DF90CF90BF90AF909F908F908A
:104E70007F906F905F904F903F902F9063CD8330E5
:104E8000910509F30197D9F163960FB6F894DEBF47
:104E90000FBECDBFDF91CF911F910F91FF90EF908B
:104EA000DF90CF90BF90AF909F908F907F906F904A
:104EB0005F904F903F902F900895C701A32DB22D82
:104EC000F60180839183A283B383DD24D394C12C24
:104ED00020E030E0A901E982FA823B822C826981DC
:104EE0007A818B819C810F94BE3518160CF0D12CE1
:104EF0008D2D9C2DD3018D939C93019729F6F8015C
:104F0000EB51F64E208131814281538129833A83CE
:104F10004B835C832F813B854C855D8569817A81DC
:104F20008B819C810F94BE3518160CF4ADCF82E0B6
:104F300090E0D3018D939C9345CFABD86F83788756
:104F400089879A8728EE33E0AE85BF850F94D927ED
:104F5000DC01CB012F81388549855A85820F931F4B
:104F6000A41FB51FED81FE8180839183A283B3834B
:104F70008BCF4F925F926F927F928F929F92AF9260
:104F8000BF92CF92DF92EF92FF920F931F93CF9336
:104F9000DF9300D000D00F920F92CDB7DEB7809193
:104FA000F119811117C028960FB6F894DEBF0FBE15
:104FB000CDBFDF91CF911F910F91FF90EF90DF90C8
:104FC000CF90BF90AF909F908F907F906F905F90A9
:104FD0004F9008950E9452155CD82B013C012091FE
:104FE0004715309148154091491550914A152D8328
:104FF0003E834F83588780914515909146159C01BB
:10500000990F440B550B29833A834B835C83CA0168
:10501000B9010F947D2CE4E08E2E912CF8E2AF2E96
:10502000B12CD12CC12C69837A838B839C83E9803A
:10503000FA800B811C812D813E814F81588569ED5D
:1050400079E18DED99E16FDE8091061A9091071A52
:105050009C01990F440B550B29833A834B835C8346
:10506000CA01B9010F947D2C9B01AC016D817E8139
:105070008F8198850F94BE351816D4F4809125023F
:10508000909126029C01990F440B550B29833A837A
:105090004B835C83CA01B9010F947D2C9B01AC0149
:1050A0006D817E818F8198850F94772C87FD04C157
:1050B00080E08093DF0A8091541A9091551AA09154
:1050C000561AB091571A0097A105B10539F1A301FD
:1050D0009201281B390B4A0B5B0BDA01C901B7FDA2
:1050E0001DC08091581A9091591A9C0150E040E0DF
:1050F00029833A834B835C83CA01B9010F947B2CCB
:105100009B01AC016D817E818F8198850F94772CF6
:1051100087FFE9C066EE7FE080E014DC8091DF1954
:105120009091E019A091E119B091E2190097A105C1
:10513000B10559F1A3019201281B390B4A0B5B0BF6
:10514000DA01C901B7FD21C08091E3199091E419FA
:105150009C0150E040E029833A834B835C83CA0181
:10516000B9010F947B2C9B01AC016091E00A709116
:10517000E10A8091E20A9091E30A0F94772C87FF6D
:10518000B0C067ED7FE08FEFDDDB8091D5199091A6
:10519000D619A091D719B091D819A3019201281B53
:1051A000390B4A0B5B0BDA01C901B7FDFCCE38E8BD
:1051B000430E33E1531E611C711C4092D51950926D
:1051C000D6196092D7197092D8198091E00A9091FF
:1051D000E10AA091E20AB091E30A8D839E83AF8336
:1051E000B8878091020B9091030B9C01990F440B9F
:1051F000550B29833A834B835C83CA01B9010F9411
:105200007D2C22E0822E912C34E1A32EB12CCC24D3
:10521000CA94DC2C69837A838B839C83E980FA802F
:105220000B811C812D813E814F8158856FEC79E186
:1052300083ED99E178DD20E030E040EA50E46D81D3
:105240007E818F8198850F94BE3587FD2AC020E02E
:1052500030E046E153E46D817E818F8198850F9423
:10526000772C1816F4F08091020B9091030B9C019F
:10527000990F440B550B29833A834B835C83CA01F6
:10528000B9010F947D2C9B01AC016D817E818F81D2
:1052900098850F94772C87FD29C080E08093DE0AE3
:1052A00082CE1092DE0A9FB7F894809102018F7D22
:1052B000809302019FBF77CE0E94981A69837A83F8
:1052C0008B839C8369817A818B819C810F94DB34F1
:1052D00069837A838B839C8389819A81959587954D
:1052E000E8CE71DA52CF0E94692018CF8FE7D6CF6F
:1052F00002C00E9462BA9091081680910916981314
:10530000F8CF0C9435A4CF93DF9300D000D0CDB765
:10531000DEB79C018FB7F894220F331F220F331F83
:10532000F901E353F54F40815181628173814983D3
:105330005A836B837C838FBFB901685F754E7E8310
:105340006D8369817A818B819C810F947D2CED81A5
:10535000FE81208131814281538169837A838B83ED
:105360009C8369817A818B819C810F94DC2C698379
:105370007A838B839C8369817A818B819C81269639
:105380000FB6F894DEBF0FBECDBFDF91CF91089569
:1053900002C00E9462BA9091081680910916981373
:1053A000F8CF08951F920F920FB60F9211240BB6EB
:1053B0000F928F929F92AF92BF92CF92DF92EF9215
:1053C000FF920F931F932F933F934F935F936F938E
:1053D0007F938F939F93AF93BF93CF93DF93EF937D
:1053E000FF9380916E008B7F80936E0080916F00A1
:1053F0008D7F80936F007894C090C719D090C819A2
:10540000E090C919F090CA19C114D104E104F10463
:1054100041F08091B60B8111D8C28091BD0B8111F2
:10542000D4C28091C90A9091CA0A009709F004C3B6
:10543000C091CB0AD091CC0A209709F406C4809180
:10544000B60B8111BFC28091BD0B8111BBC22091EF
:10545000C119A9C18A819B81AC81BD814091A819E4
:105460005091A9196091AA197091AB19840F951FD9
:10547000A61FB71F8093A8199093A919A093AA19E2
:10548000B093AB19181619061A061B062CF4889A45
:10549000C091CB0AD091CC0A8E819F81A885B98515
:1054A0004091AC195091AD196091AE197091AF193E
:1054B000840F951FA61FB71F8093AC199093AD1949
:1054C000A093AE19B093AF19181619061A061B0649
:1054D0002CF48E9AC091CB0AD091CC0A8A859B85F8
:1054E000AC85BD854091B0195091B1196091B21948
:1054F0007091B319840F951FA61FB71F8093B01921
:105500009093B119A093B219B093B3191816190654
:105510001A061B0664F49FB7F89480910B0188600B
:1055200080930B019FBFC091CB0AD091CC0A8E858E
:105530009F85A889B9894091B4195091B519609196
:10554000B6197091B719840F951FA61FB71F8093C6
:10555000B4199093B519A093B619B093B71918164A
:1055600019061A061B062CF4149AC091CB0AD09186
:10557000CC0A4091A8195091A9196091AA1970916B
:10558000AB198A899B89AC89BD8914161506160644
:10559000170684F5481B590B6A0B7B0B4093A8191F
:1055A0005093A9196093AA197093AB19909118029E
:1055B0004091CD0A5091CE0A6091CF0A7091D00AE5
:1055C000892F990F990BAA0BBB0B840F951FA61F50
:1055D000B71F8093CD0A9093CE0AA093CF0AB093C1
:1055E000D00A8898C091CB0AD091CC0A8A899B892D
:1055F000AC89BD894091AC195091AD196091AE193B
:105600007091AF19141615061606170684F5481B77
:10561000590B6A0B7B0B4093AC195093AD196093F7
:10562000AE197093AF19909119024091D10A50911F
:10563000D20A6091D30A7091D40A892F990F990BDD
:10564000AA0BBB0B840F951FA61FB71F8093D10A0F
:105650009093D20AA093D30AB093D40A8E98C091A3
:10566000CB0AD091CC0A8A899B89AC89BD894091AB
:10567000B0195091B1196091B2197091B319141603
:10568000150616061706BCF5481B590B6A0B7B0B53
:105690004093B0195093B1196093B2197093B31934
:1056A00090911A024091D50A5091D60A6091D70A7A
:1056B0007091D80A892F990F990BAA0BBB0B840FF5
:1056C000951FA61FB71F8093D50A9093D60AA09363
:1056D000D70AB093D80A9FB7F89480910B01877FBF
:1056E00080930B019FBFC091CB0AD091CC0A8A89CD
:1056F0009B89AC89BD894091B4195091B5196091CD
:10570000B6197091B719141615061606170684F502
:10571000481B590B6A0B7B0B4093B4195093B51976
:105720006093B6197093B71990911B024091D90AF2
:105730005091DA0A6091DB0A7091DC0A892F990F87
:10574000990BAA0BBB0B840F951FA61FB71F809345
:10575000D90A9093DA0AA093DB0AB093DC0A149872
:10576000C091CB0AD091CC0A8A899B89AC89BD892A
:105770004091CB195091CC196091CD197091CE19EF
:105780004F5F5F4F6F4F7F4F4093CB195093CC19B2
:105790006093CD197093CE192150481759076A07A5
:1057A0007B0708F0EAC1211155CEF12C8091CB196D
:1057B0009091CC19A091CD19B091CE194E895F89E5
:1057C000688D798D481759076A077B0708F45EC111
:1057D0004091B8195091B9196091BA197091BB19DB
:1057E0000E8D1F8D28A139A1AA27419FB12D529F4F
:1057F000E001629FD00D619FC00DD11D429FB00D91
:10580000C11DDA1F519FB00DC11DDA1F609FB00D81
:10581000C11DDA1F509FB10DCA1FDA1FB695CA1FEE
:10582000DA1F349FC00DD11D359FD00D1124E0919A
:10583000CB0AF091CC0A83AD94AD8C0F9D1F909351
:10584000BD198093BC1947A950AD61AD72AD8C01F3
:1058500030E020E0401751076207730728F4CA01BF
:105860005093BD194093BC198134FCE99F0708F09F
:1058700087C181322EE4920708F4E8C39695879594
:1058800096958795EC01A097ED2FFF27EE0FFF1F50
:10589000EE0FFF1F2C2F84E08093C119CF01835698
:1058A000954FFC01329645915491AA27259FB0014E
:1058B000249F610D7A1F06946A1F7A1F1124FC0130
:1058C00045915491461B570B4436510508F422C3A9
:1058D0004A01B12CA12C8091B60B8111E0C28091BC
:1058E000BD0B8111DCC250938900409388008091E8
:1058F000B8199091B919A091BA19B091BB19880D36
:10590000991DAA1DBB1D8093B8199093B919A09336
:10591000BA19B093BB192091880030918900809109
:1059200084009091850040962817390748F48091AB
:105930008400909185004096909389008093880020
:10594000FF2009F46DC01092CC0A1092CB0A9091FE
:10595000081680910916981709F462C080910916FB
:105960008F5F8F7080930916F8948091011A8111CE
:105970005DC080916E00846080936E0080916F00A6
:10598000826080936F00FF91EF91DF91CF91BF9183
:10599000AF919F918F917F916F915F914F913F91C7
:1059A0002F911F910F91FF90EF90DF90CF90BF90BC
:1059B000AF909F908F900F900BBE0F900FBE0F90E7
:1059C0001F9018950E94D41442CD0E94D41429EB44
:1059D000C2162BE0D206E104F10408F023C11092B4
:1059E000C7191092C8191092C9191092CA19D092E9
:1059F0008900C092880020918800309189008091B0
:105A000084009091850040962817390748F48091CA
:105A1000840090918500409690938900809388003F
:105A2000F8948091011A882309F4A3CF80916E0025
:105A30008B7F80936E00A2CF01979093CA0A8093C8
:105A4000C90A1092CC0A1092CB0A30910816209104
:105A50000916321731F0209109162F5F2F7020930D
:105A60000916892B09F412C288EC90E09093890002
:105A700080938800F8948091011A882309F479CFE3
:105A800080916E008B7F80936E0078CF8091CB19D0
:105A90009091CC19A091CD19B091CE194A8D5B8D02
:105AA0006C8D7D8D481759076A077B0708F06EC01B
:105AB0004091C2195091C3196091C4197091C519D0
:105AC0000E8D1F8D28A139A1AA27419FB12D529F6C
:105AD000F001629FF00D619FE00DF11D429FB00D3E
