:100000000C943F100C9470100C9470100C947010A1
:100010000C9470100C9470100C9470100C94701060
:100020000C9470100C9470100C9470100C94701050
:100030000C9470100C9470100C9470100C94701040
:100040000C9470100C94942B0C9470100C947010F1
:100050000C9470100C9470100C9485270C94FD2552
:100060000C9470100C9444AB0C9470100C947010A1
:100070000C9470100C9470100C9470100C94701000
:100080000C9470100C9470100C9470100C947010F0
:100090000C9470100C9470100C9470100C947010E0
:1000A0000C9470100C9470100C9470100C947010D0
:1000B0000C9470100C9470100C9470100C947010C0
:1000C0000C9470100C9470100C9470100C946F269B
:1000D0000C9445260C9470100C9470100C947010B5
:1000E0000C947010084AD73B3BCE016E84BCBFFD18
:1000F000C12F3D6C74319ABD56833DDA3D00C77FF8
:1001000011BED9E4BB4C3E916BAAAABE0000008090
:100110003F05A84CCDB2D44EB93836A9020C50B91F
:10012000918688083CA6AAAA2ABE000000803F004B
:100130004E414E494E495459494E46CDCCCC3D0ACC
:10014000D7233C17B7D13877CC2B329595E6241FAF
:10015000B14F0A000020410000C84200401C462068
:10016000BCBE4CCA1B0E5AAEC59D7400407A10F33B
:100170005A00A0724E18090010A5D4E80000E876D5
:1001800048170000E40B54020000CA9A3B0000002C
:10019000E1F505000080969800000040420F000045
:1001A00000A08601000000102700000000E8030006
:1001B0000000006400000000000A000000000001D0
:1001C00000000000002C76D888DC674F0823DFC1D0
:1001D000DFAE59E1B1B796E5E3E453C63AE651998B
:1001E0007696E8E6C28426EB898C9B62ED407C6FB4
:1001F000FCEFBC9C9F40F2BAA56FA5F490055A2A6B
:10020000F75C936B6CF9676DC11BFCE0E40D47FE76
:10021000F520E6B500D0ED902E030094357705006B
:1002200080841E080000204E0A000000C80C3333F2
:1002300033330F986E12831141EF8D2114893BE601
:100240005516CFFEE6DB18D1844B381BF77C1D908A
:100250001DA4BBE424203284725E228100C9F124F3
:10026000ECA1E53D27434F4D4D554E49434154497F
:100270004F4E0044525952554E004552524F525320
:1002800000494E464F004543484F0047322F473301
:100290002062616420706172616D65746572730AB9
:1002A000005A2070726F6265206F75742E2062652F
:1002B000640A00473238205A20466F7262696464CB
:1002C000656E0A00205A3A200020593A2000426503
:1002D0006420583A20004D65736820706F696E7411
:1002E0002063616E6E6F74206265207265736F6C3F
:1002F0007665640A00456E642066696C65206C69E9
:1003000073740A00426567696E2066696C65206CCB
:100310006973740A004E6F74205344207072696EC2
:1003200074696E670A005344207072696E74696E56
:1003300067206279746520002569730025696D2046
:10034000256973002569682025696D20256973007A
:10035000256964202569682025696D202569730059
:1003600025697920256964202569682025696D2023
:10037000256973005072696E742074696D653A2046
:100380000050726F7465637465642050696E0A0072
:100390006F666600860281027A0273026502444536
:1003A0004255473A004D3131332053006F6B002FD7
:1003B0002F200053657474696E67205472617665EE
:1003C0006C20416363656C65726174696F6E3A207D
:1003D0000053657474696E6720526574726163744A
:1003E00020416363656C65726174696F6E3A2000C9
:1003F00053657474696E67205072696E742041632E
:1004000063656C65726174696F6E3A200053657440
:1004100074696E67205072696E7420616E64205436
:10042000726176656C20416363656C6572617469A5
:100430006F6E3A2000000136372603FF3C3D380E30
:10044000FF2E303E12FFFF0C0809FFFFFF1A1C1899
:10045000FFFF08440AFF43FFFFFFFFFFFF43290A96
:100460000061626C656420286D696E2074656D7032
:100470002000436F6C642065787472756465732026
:1004800061726520004D65736820706F696E74201D
:1004900063616E6E6F74206265207265736F6C7637
:1004A00065640A004D34323120696E636F72726583
:1004B000637420706172616D65746572207573611B
:1004C00067650A00546F6F206661722066726F6DF7
:1004D000207265666572656E636520706F696E7403
:1004E0000A00207A70726F62655F7A6F6666736564
:1004F000743D20007A5F6D696E3A20202D323020E5
:100500007A5F6D61783A20203230005A204F66665B
:1005100073657420004E6F2063617365206C69679A
:1005200068740A0041637469766520457874727551
:100530006465723A2000556E6B6E6F776E20636F44
:100540006D6D616E643A202200526573656E643A87
:1005500020006F6B0020746F6F206C6F6E672065DA
:100560007874727573696F6E2070726576656E74DB
:1005700065640A0020636F6C64206578747275731B
:10058000696F6E2070726576656E7465640A0062CC
:100590007573793A2070617573656420666F722097
:1005A000696E7075740A00627573793A20706175AE
:1005B00073656420666F7220757365720A006275D8
:1005C00073793A2070726F63657373696E670A009E
:1005D0004B494C4C20636175736564206279204BF4
:1005E000494C4C20627574746F6E2F70696E0A00EE
:1005F0004B494C4C206361757365642062792074AB
:100600006F6F206D75636820696E616374697665CC
:100610002074696D65202D2063757272656E74207B
:10062000636F6D6D616E643A200000000000000091
:1006300000000000000000004842000048420000A6
:100640008040000000005761726E696E673A204872
:100650006F6D696E672042756D70204469766973AD
:100660006F72203C20310A000202040000A040000A
:1006700000A04000000040000096430000964300A8
:1006800000C843FFFFFF62696E004D3131372049DA
:100690004E56414C494420444154412E004730209D
:1006A0005A257300473238205830205930004730DF
:1006B000205A257300473932205A25732045257367
:1006C0000062696E007C3C3E5E2B3D3F2F5B5D3BD4
:1006D0002C2A225C004572726F72207772697469ED
:1006E0006E6720746F20454550524F4D210A0029F6
:1006F0000A002062797465733B20637263200053A3
:10070000657474696E67732053746F726564202812
:1007100000202863616C63756C6174656429210A2B
:100720000020213D2000454550524F4D204352436B
:10073000206D69736D61746368202D202873746F58
:10074000726564292000290A002062797465733B70
:100750002063726320002073746F72656420736578
:100760007474696E67732072657472696576656406
:10077000202800204D61726C696E3D563431290A83
:100780000028454550524F4D3D00454550524F4D74
:100790002076657273696F6E206D69736D61746325
:1007A00068200048617264636F6465642044656614
:1007B00061756C742053657474696E6773204C6F37
:1007C000616465640A00F4010000F4010000640043
:1007D00000008813000000009643000096430000CC
:1007E000A0400000C8410000A0420000A04200005C
:1007F000C84300000C4320204D383531205A005AA0
:100800002D50726F6265204F666673657420286D87
:100810006D293A0A0020440020490020204D333041
:10082000312050005049442073657474696E6773B9
:100830003A0A00205A0020204D3432302053004123
:1008400075746F20426564204C6576656C696E67CF
:100850003A0A00205A0020590020204D323036201C
:100860005800486F6D65206F66667365743A0A00BC
:10087000204500205A002059002058002042002026
:10088000540020204D323035205300416476616E93
:100890006365643A20533C6D696E5F66656564729A
:1008A0006174653E20543C6D696E5F74726176655B
:1008B0006C5F66656564726174653E20423C6D697B
:1008C0006E5F7365676D656E745F74696D655F6D8E
:1008D000733E20583C6D61785F78795F6A65726B12
:1008E0003E205A3C6D61785F7A5F6A65726B3E208C
:1008F000453C6D61785F655F6A65726B3E0A0020FA
:10090000540020520020204D3230342050004163EA
:1009100063656C65726174696F6E2028756E6974A9
:10092000732F7332293A20503C7072696E745F6184
:100930006363656C3E20523C726574726163745FE0
:10094000616363656C3E20543C74726176656C5FD4
:10095000616363656C3E0A00204500205A002059FF
:100960000020204D3230312058004D6178696D757E
:100970006D20416363656C65726174696F6E2028D8
:10098000756E6974732F7332293A0A00204500206E
:100990005A0020590020204D3230332058004D613C
:1009A00078696D756D206665656472617465732024
:1009B00028756E6974732F73293A0A002045002048
:1009C0005A0020590020204D3932205800537465B8
:1009D00070732070657220756E69743A0A00202069
:1009E0004D3230302044300A0020204D323030204B
:1009F00044002044697361626C65640A0046696C56
:100A0000616D656E742073657474696E67733A0006
:100A100020204D3134392043203B20556E697473BA
:100A200020696E2043656C736975730A0020204746
:100A30003231202020203B20556E69747320696E6E
:100A4000206D6D0A007A5F6D696E3A2000795F6DE6
:100A5000696E3A2000785F6D696E3A2000526570C9
:100A60006F7274696E6720656E6473746F70207343
:100A700074617475730A0020746F6F206C6F6E67F9
:100A800020657874727573696F6E20707265766513
:100A90006E7465640A0020636F6C642065787472FC
:100AA0007573696F6E2070726576656E7465640A21
:100AB0000024F4D43050C38E20C2A24017828B7021
:100AC00011127A910D816CD90AA861E108C75866A4
:100AD00007615143061E4B5D05C145A7041A41112C
:100AE00004093D9803713931034036DB02653391C7
:100AF00002D4305402802E1D02632CEE01752AC5EB
:100B000001B028A001102781018F2564012B244BFF
:100B100001E0223401AC211F018D200D01801FFC5A
:100B200000841EED00971DDF00B81CD200E61BC636
:100B300000201BBC00641AB200B219A8000A19A058
:100B4000006A189900D117910040178B00B51684E0
:100B50000031167E00B31579003A157300C7146F83
:100B60000058146A00EE1366008813630025135EB4
:100B700000C7125B006C12570015125400C11151CE
:100B80000070114F0021114B00D61049008D104705
:100B9000004610440002104200C00F4000800F3E8B
:100BA00000420F3C00060F3B00CB0E3800930E377F
:100BB000005C0E3500270E3400F30D3200C10D31FC
:100BC00000900D3000600D2E00320D2D00050D2C13
:100BD00000D90C2B00AE0C2900850C29005C0C27D9
:100BE00000350C27000E0C2600E80B2400C40B2453
:100BF00000A00B23007D0B23005A0B2100390B2191
:100C000000180B2000F80A1F00D90A1E00BB0A1E9C
:100C1000009D0A1D00800A1D00630A1C00470A1B74
:100C2000002C0A1B00110A1A00F7091A00DD091925
:100C300000C4091900AB091900920917007B0918B3
:100C400000630917004C0916003609160020091622
:100C5000000A091500F5081500E0081400CC081476
:100C600000B8081400A4081400900813007D0812AE
:100C7000006B0813005808120046081200340811CF
:100C800000230811001208110001081100F00710DC
:100C900000E0071000D0071000C0071000B0070FD9
:100CA00000A107100091070E0083070F0074070FC3
:100CB0000065070E0057070E0049070E003B070DA1
:100CC000002E070E0020070D0013070D0006070D6C
:100CD00000F9060C00ED060D00E0060C00D4060C31
:100CE00000C8060C00BC060C00B0060C00A4060BE5
:100CF0000099060C008D060B0082060B0077060B90
:100D0000006C060B0061060A0057060B004C060A31
:100D10000042060A0038060A002E060A0024060AC7
:100D2000001A060A001006090007060A00FD050958
:100D300000F4050900EB050900E2050900D90509E1
:100D400000D0050900C7050900BE050900B5050862
:100D500000AD050800A50509009C050800940508DC
:100D6000008C050800840508007C0508007405084F
:100D7000006C050700650508005D050700560508BD
:100D8000004E050700470507004005080038050725
:100D900000310507002A050700230507001C05068A
:100DA00000160507000F05070008050600020507E5
:100DB00000FB040600F5040700EE040600E8040644
:100DC00000E2040700DB040600D5040600CF040699
:100DD00000C9040600C3040600BD040600B70406EB
:100DE00000B1040500AC040600A6040600A004053A
:100DF000009B04060095040500900406008A040583
:100E00000085040500800406007A040500750405C9
:100E100000700405006B040500660405006104050C
:100E2000005C04050057040500520405004D04054C
:100E30000048040500430405003E0404003A04058C
:100E40000035040500300404002C040500270404C8
:100E500000230405001E0404001A040400160405FF
:100E600000110404000D0404000904050004040436
:100E70000000040400FC030400F8030400F403046D
:100E800000F0030400EC030400E8030400E403049E
:100E900000E0030400DC030400D8030400D40304CE
:100EA00000D0030400CC030400C8030300C50303FF
:100EB0000024F404D9201BC40C5C0E9804C4095F00
:100EC0000265077101F405F900FB04B300480487CB
:100ED00000C10369005803550003034500BE023AF0
:100EE000008402310053022A002902250004022056
:100EF00000E4011C00C8011900AF0117009801149B
:100F00000084011300710110006101100051010EF5
:100F10000043010D0036010B002B010B0020010BDB
:100F200000150109000C01090003010800FB00087D
:100F300000F3000800EB000700E4000600DE0006F6
:100F400000D8000600D2000600CC000500C700054E
:100F500000C2000500BD000400B9000400B5000493
:100F600000B1000400AD000400A9000400A50003C6
:100F700000A20003009F0004009B000300980003F0
:100F8000009500020093000300900003008D000212
:100F9000008B00030088000200860002008400032A
:100FA00000810002007F0002007D0002007B000241
:100FB0000079000200770001007600020074000250
:100FC0000072000100710002006F0002006D00015C
:100FD000006C0002006A0001006900020067000165
:100FE000006600010065000100640002006200016B
:100FF0000061000100600001005F0002005D00016F
:10100000005C0001005B0001005A00010059000172
:101010000058000100570001005600010055000172
:101020000054000100530000005300010052000171
:101030000051000100500001004F0001004E00006F
:10104000004E0001004D0001004C0001004B00006B
:10105000004B0001004A0001004900010048000067
:101060000048000100470001004600000046000162
:10107000004500000045000100440001004300005D
:101080000043000100420000004200010041000056
:101090000041000100400001003F0000003F00014E
:1010A000003E0000003E0001003D0000003D000148
:1010B000003C0000003C0000003C0001003B000040
:1010C000003B0001003A0000003A00010039000036
:1010D000003900010038000000380000003800012D
:1010E0000037000000370001003600000036000025
:1010F0000036000100350000003500000035000119
:10110000003400000034000000340001003300000F
:101110000033000000330001003200000032000004
:1011200000320001003100000031000000310001F8
:10113000003000000030000000300001002F0000EF
:10114000002F0000002F0000002F0001002E0000E3
:10115000002E0000002E0001002D0000002D0000D8
:10116000002D0000002D0001002C0000002C0000CC
:10117000002C0000002C0001002B0000002B0000C0
:10118000002B0000002B0001002A0000002A0000B4
:10119000002A0000002A00010029000000290000A8
:1011A000002900000029000000290001002800009B
:1011B000002800000028000000280000002800018E
:1011C0000027000000270000002700000027000083
:1011D0000027000100260000002600000026000075
:1011E0000026000000260001002500000025000068
:1011F000002500000025000000250000002500015A
:10120000002400000024000000240000002400004E
:101210000024000100230000002300000023000040
:101220000023000000230000002300000023000131
:101230000022000000220000002200000022000026
:101240000022000000220001002100000021000017
:10125000002100000021000000210000002100000A
:1012600000210001002000000020000000200000FC
:1012700000200000002000000020000000200000EE
:1012800000200001001F0000001F0000001F0000E0
:10129000001F0000001F0000001F0000001F0001D1
:1012A000001E0000001E0000001E0000001E0000C6
:1012B000004D383420582059205A20450048656197
:1012C00074696E67206661696C6564004865617465
:1012D000696E67206661696C65640070012C01901D
:1012E000012701B0012201C0011D01F00118011008
:1012F00002130130020E016002090190020401C0D4
:1013000002FF000003FA004003F5008003F000D064
:1013100003EB002004E6007004E100E004DC004080
:1013200005D700C005D2004006CD00D006C8008019
:1013300007C3003008BE00F008B900C009B400B00F
:101340000AAF00B00BAA00D00CA500000EA0005000
:101350000F9B00C01096005012910000148C00C02A
:10136000158700B0178200B0197D00D01B780000EF
:101370001E730040206E0090226900F0246400403B
:10138000275F0090295A00E02B5500102E500020B6
:10139000304B0010324600E033410090353C0010E5
:1013A00037370070383200A0392D00B03A2800A03D
:1013B0003B2300603C1E00103D1900903D140010BE
:1013C0003E0F00703E0A00C03E0500003F00004096
:1013D0003FFBFF803FF6FFC03FF1FF546865726D31
:1013E000616C2052756E61776179004D494E5445AC
:1013F0004D5020747269676765726564004D41588D
:1014000054454D50207472696767657265640020A9
:1014100020506C616E6E65724275666665724279C7
:101420007465733A20002046726565204D656D6FC6
:1014300072793A2000436F6D70696C65643A20449C
:10144000656320323720323031380A00207C204159
:101450007574686F723A2043522D313053205072A8
:101460006F0A00323031372D31302D31302031329A
:101470003A303000204C617374205570646174659B
:10148000643A200056657220312E36302E330A0021
:101490004D61726C696E0020536F6674776172657E
:1014A0002052657365740A00205761746368646F25
:1014B000672052657365740A002042726F776E2050
:1014C0006F75742052657365740A002045787465E1
:1014D000726E616C2052657365740A00506F776597
:1014E0007255700A0073746172740A006572726FCB
:1014F000722077726974696E6720746F2066696CF8
:10150000650A00205A3A0020593A0020583A0065EE
:101510006E6473746F7073206869743A2000446F4E
:101520006E6520736176696E672066696C652E0A48
:10153000004D32390000002100240027002A002D30
:10154000003000330001010000040107010A01001E
:10155000002200250028002B002E0031003400025C
:10156000010000050108010B0100002000230026F6
:101570000029002C002F00320000010000030106AA
:10158000010901050505050705080808080202020A
:10159000020A0A080804040404010101010101010E
:1015A000010303030303030303040707070C0C0CE5
:1015B0000C0C0C0C0C0202020206060606060606BD
:1015C000060B0B0B0B0B0B0B0B010210202008085A
:1015D0001020401020408002010201080402010195
:1015E000020408102040808040201008040201807E
:1015F00004020180402010080402010804020101D5
:1016000002040810204080010204081020408000DD
:10161000000A0B02090C0D0E08070304010000006C
:1016200000000000000000000000000000000000BA
:101630000000000000000000000000121110000077
:10164000000000000000000000000000000000009A
:10165000000000000050726F62696E672066616969
:101660006C65640A00205A3A200020593A20004252
:10167000656420583A20004D383400577269746907
:101680006E6720746F2066696C653A20006F706524
:101690006E206661696C65642C2046696C653A2031
:1016A000006F70656E206661696C65642C20466908
:1016B0006C653A200046696C652073656C656374DF
:1016C00065640A002053697A653A200046696C65B2
:1016D000206F70656E65643A20006F70656E2066DD
:1016E00061696C65642C2046696C653A200020664F
:1016F000696C653A20004E6F7720002220706F736E
:10170000002220706172656E743A22005355425275
:101710004F5554494E452043414C4C2074617267EB
:1017200065743A2200747279696E6720746F206361
:10173000616C6C207375622D67636F6465206669E8
:101740006C6573207769746820746F6F206D616EAB
:1017500079206C6576656C732E204D4158206C6540
:1017600076656C2069733A0043616E6E6F74206F0A
:1017700070656E2073756264697220002E0A0057CE
:10178000726974696E6720746F2066696C653A20AF
:10179000006F70656E206661696C65642C20466917
:1017A0006C653A200053442063617264206F6B0AB9
:1017B000006F70656E526F6F74206661696C65644E
:1017C0000A00766F6C756D652E696E6974206661AE
:1017D000696C65640A00534420696E69742066610F
:1017E000696C0A004D3234004D323320257300619C
:1017F00075746F25692E6700656E7175657565690D
:101800006E672022006563686F3A006265640A00B3
:101810002C2073797374656D2073746F70706564B8
:1018200021204865617465725F49443A2000507216
:10183000696E7465722068616C7465642E206B69D2
:101840006C6C28292063616C6C6564210A00457208
:10185000726F723A004D3234004D323320257300DE
:10186000542569004D3130362053323535004D3125
:10187000303920532569004D313930205325690016
:101880004730205A2573004D3130392053256900E7
:101890004D31393020532569004D32340047312015
:1018A00046313030205A31302E320047323800472E
:1018B000312046313030205A2D3300473120583303
:1018C0003020593237302046353030300047312013
:1018D00046313030205A333B0047312046313030DA
:1018E000205A2D33004731205832373020593237B3
:1018F00030204635303030004731204631303020FE
:101900005A333B0047312046313030205A2D3300C6
:101910004731205832373020593330204635303067
:10192000300047312046313030205A333B004731B8
:101930002046313030205A2D330047312058333083
:101940002059333020463530303000473120463181
:101950003030205A333B0047312046313030205A56
:101960002D33004731205831353020593135302062
:1019700046353030300047312046313030205A3340
:101980003B0047312046313030205A302E3200475C
:1019900031205831353020593135302046353030FE
:1019A000300047312046313030205A31302E323B22
:1019B000004732390047312046323030205A302E2D
:1019C0003200473930004732382058302059302013
:1019D0005A30004731205A302E32202046313530DF
:1019E00000473238205A3000473238004D38340032
:1019F0004731205A302E32204631353000473238B8
:101A0000004D31303920532569004D313930205394
:101A10002569004730205831302059313020463375
:101A20003030300047302058313020593130204696
:101A300033303030005072696E7465722073746F89
:101A4000707065642064756520746F206572726FB4
:101A500072732E2046697820746865206572726FF3
:101A60007220616E6420757365204D393939207498
:101A70006F20726573746172742E202854656D70C6
:101A8000657261747572652069732072657365741F
:101A90002E2053657420697420616674657220720B
:101AA000657374617274696E67290A004E6F204C09
:101AB000696E65204E756D62657220776974682065
:101AC000636865636B73756D2C204C617374204C77
:101AD000696E653A20004E6F20436865636B7375CD
:101AE0006D2077697468206C696E65206E756D6213
:101AF00065722C204C617374204C696E653A20002D
:101B0000636865636B73756D206D69736D61746374
:101B1000682C204C617374204C696E653A20004C2F
:101B2000696E65204E756D626572206973206E6FF7
:101B300074204C617374204C696E65204E756D6223
:101B400065722B312C204C617374204C696E653AA0
:101B500020004D313130004D3331004D38342058A4
:101B60002059205A20450053442072656164206545
:101B700072726F720A00446F6E65207072696E74C3
:101B8000696E672066696C650A0020496E76616C33
:101B900069642065787472756465722000000000C5
:101BA00000000000000000000000009643000096C6
:101BB000430000C84342696C696E656172204C65E0
:101BC00076656C696E6720477269643A0A00207016
:101BD0006F736974696F6E206F7574206F66207201
:101BE000616E67652E0A003F50726F6265200020AB
:101BF00066697273740A005A0059005800486F6D84
:101C000065200052756E6E696E6720696E204452C1
:101C1000592D52554E206D6F64650A0047323920A8
:101C20004175746F20426564204C6576656C696E01
:101C3000670A0028422961636B00284629726F6E8B
:101C400074002852296967687400284C29656674F5
:101C5000003F2856296572626F7365206C65766552
:101C60006C20697320696D706C61757369626C6555
:101C70002028302D34292E0A00426164205A207613
:101C8000616C75650A004E6F2062696C696E6561F2
:101C90007220677269640A0044656C6574696F6ECE
:101CA000206661696C65642C2046696C653A200089
:101CB00046696C652064656C657465643A006F7094
:101CC000656E206661696C65642C2046696C653AB6
:101CD0002000202F002042403A0020403A004732A6
:101CE000382058302059300020573A0047323820E9
:101CF00058302059300020573A00205A3A002059D5
:101D00003A0020436F756E7420583A0020453A001F
:101D1000205A3A0020593A00583A004361703A4537
:101D20004D455247454E43595F5041525345523AF3
:101D3000300A004361703A434153455F4C4947487C
:101D4000545F4252494748544E4553533A300A0073
:101D50004361703A544F47474C455F4C494748549C
:101D6000533A300A004361703A534F465457415238
:101D7000455F504F5745523A300A004361703A4C24
:101D80004556454C494E475F444154413A310A005B
:101D90004361703A5A5F50524F42453A310A00430C
:101DA00061703A4155544F4C4556454C3A310A0002
:101DB0004361703A5052494E545F4A4F423A310A99
:101DC000004361703A50524F47524553533A300ADC
:101DD000004361703A4155544F5245504F52545F41
:101DE00054454D503A310A004361703A45455052CE
:101DF0004F4D3A310A004649524D574152455F4EC8
:101E0000414D453A4D61726C696E205665722031C4
:101E10002E36302E332028437265616C6974793315
:101E2000442920534F555243455F434F44455F5526
:101E3000524C3A68747470733A2F2F6769746875DE
:101E4000622E636F6D2F4D61726C696E4669726DA3
:101E5000776172652F4D61726C696E2050524F54DC
:101E60004F434F4C5F56455253494F4E3A312E30F7
:101E7000204D414348494E455F545950453A777784
:101E8000772E6378737733642E636F6D20455854D3
:101E900052554445525F434F554E543A31205555A3
:101EA00049443A63656465326132662D343161328A
:101EB0002D343734382D396231322D633535633660
:101EC000326633363766660A00205A0020590058B9
:101ED0000020204D61783A2000205A0020590058F7
:101EE0000020204D696E3A20004F6E20004F66663C
:101EF00000536F667420656E6473746F70733A205C
:101F00000020643A0020693A0020703A002364659A
:101F100066696E65202044454641554C545F4B64CC
:101F2000200023646566696E65202044454641555E
:101F30004C545F4B69200023646566696E65202000
:101F400044454641554C545F4B7020005049442055
:101F50004175746F74756E652066696E6973686526
:101F600064212050757420746865206C617374203E
:101F70004B702C204B6920616E64204B6420636F92
:101F80006E7374616E74732066726F6D2062656C1F
:101F90006F7720696E746F20436F6E666967757224
:101FA0006174696F6E2E680A00504944204175744F
:101FB0006F74756E65206661696C65642120746953
:101FC0006D656F75740A00504944204175746F74D3
:101FD000756E65206661696C6564212054656D705D
:101FE0006572617475726520746F6F2068696768C7
:101FF0000A00204B643A2000204B693A2000204B15
:10200000703A20000A20436C617373696320504961
:1020100044200A002054753A2000204B753A2000D5
:10202000206D61783A2000206D696E3A20002064AE
:102030003A200020626961733A20004F66660A0008
:10204000466164652048656967687420004265647C
:10205000204C6576656C696E6720004661696C6529
:102060006420746F20656E61626C65204265642037
:102070004C6576656C696E670A00AED463DC11242A
:102080001FBECFEFD1E2DEBFCDBF00E00CBF15E039
:10209000A0E0B2E0ECE3F7ED01E00BBF02C0079077
:1020A0000D92A638B107D9F72CE1A6E8B5E001C03A
:1020B0001D92A133B207E1F710E1CEE3D0E100E0D9
:1020C00006C021970109802FFE010E94BADCCD33A2
:1020D000D10780E00807A9F70E94B2D40C944EEB18
:1020E0000C94000008954F925F926F927F928F92AE
:1020F0009F92AF92BF92CF92DF92EF92FF921F9387
:10210000CF93DF93C0905602D0905702E0905802D0
:10211000F09059028090560C9090570CA090580C5B
:10212000B090590CA7019601C701B6010E942FEB90
:102130008823C1F08092560290925702A0925802D2
:10214000B0925902DF91CF911F91FF90EF90DF90F5
:10215000CF90BF90AF909F908F907F906F905F9047
:102160004F900895A7019601C501B4010E947FE830
:102170002B013C0120E030E0A9010E9460E18823AE
:10218000C9F2C6E1DCE07E0114E0F70161917191D2
:10219000819191917F016F01F4E0CF1AD108A301E1
:1021A00092010E947FE8F6016083718382839383AA
:1021B000115059F76096FCE0C635DF0721F7BACF1A
:1021C000FC01DB018C9120813181382798E0A90145
:1021D000220F331F57FD05C09150C9F7318320836B
:1021E0000895B1E22B27B0E13B27F6CF8150823131
:1021F00008F048C0E82FF0E08827E05AF4418F4FFC
:102200000C94BADC809180008F77809380000895D1
:10221000809180008F7DF9CF80918000877FF5CFFE
:1022200084B58F7784BD089584B58F7DFBCF809171
:10223000B0008F778093B00008958091B0008F7DBB
:10224000F9CF809190008F778093900008958091CE
:1022500090008F7DF9CF80919000877FF5CF80919E
:10226000A0008F778093A00008958091A0008F7DBB
:10227000F9CF8091A000877FF5CF809120018F77E3
:10228000809320010895809120018F7DF9CF809166
:102290002001877FF5CFCF93DF93282F30E0F9011E
:1022A000E15FF94E8491F901E753FA4ED491F901B7
:1022B000ED57FA4EC491CC2399F0811197DFEC2FA2
:1022C000F0E0EE0FFF1FE759FA4EA591B491EC91A3
:1022D000ED2381E090E009F480E0DF91CF91089553
:1022E00080E090E0FACF1F93CF93DF93162F282F33
:1022F00030E0F901E15FF94E8491F901E753FA4EBC
:10230000D491F901ED57FA4EC491CC2399F0811183
:102310006DDFEC2FF0E0EE0FFF1FE15BFA4EA591B1
:10232000B4918FB7F894EC91111108C0D095DE23C9
:10233000DC938FBFDF91CF911F910895DE2BF8CFF3
:10234000CF93DF9390E0FC01E753FA4E24918D5731
:102350009A4EFC0184918823D1F090E0880F991F58
:10236000FC01EB5CFA4EA591B491FC01E15BFA4EE5
:10237000C591D49161110EC09FB7F8948C91E22F52
:10238000E0958E238C932881E223E8839FBFDF9121
:10239000CF9108958FB7F894EC91E22BEC938FBF17
:1023A000F6CF1F93CF93DF93182FEB0161E0C8DFC7
:1023B000209731F460E0812FDF91CF911F9193CF6F
:1023C000CF3FD10511F461E0F6CFE12FF0E0E15FFE
:1023D000F94EE491E150E23108F0A1C0F0E0882725
:1023E000EE58F4418F4F0C94BADC84B5806884BDFC
:1023F000C7BDDF91CF911F91089584B5806284BDE0
:10240000C8BDF7CF80918000806880938000D09312
:102410008900C0938800EDCF809180008062809316
:102420008000D0938B00C0938A00E3CF809180001E
:10243000886080938000D0938D00C0938C00D9CFAA
:102440008091B00080688093B000C093B300D1CF7A
:102450008091B00080628093B000C093B400C9CF77
:1024600080919000806880939000D0939900C093F1
:102470009800BFCF80919000806280939000D093AD
:102480009B00C0939A00B5CF8091900088608093A4
:102490009000D0939D00C0939C00ABCF8091A00092
:1024A00080688093A0008091A0008F7B8093A00023
:1024B000D093A900C093A8009CCF8091A000806217
:1024C0008093A000D093AB00C093AA0092CF8091DC
:1024D000A00088608093A000D093AD00C093AC00B2
:1024E00088CF80912001806880932001D0932901BA
:1024F000C09328017ECF80912001806280932001CB
:10250000D0932B01C0932A0174CF80912001886061
:1025100080932001D0932D01C0932C016ACFC03845
:10252000D1050CF447CF4FCF789484B5826084BD39
:1025300084B5816084BD85B5826085BD85B58160C7
:1025400085BDEEE6F0E0808181608083E1E8F0E027
:102550001082808182608083808181608083E0E856
:10256000F0E0808181608083E1EBF0E08081846035
:102570008083E0EBF0E0808181608083E1E9F0E03E
:10258000808182608083808181608083E0E9F0E0E7
:10259000808181608083E1EAF0E0808182608083D5
:1025A000808181608083E0EAF0E0808181608083C7
:1025B000E1E2F1E0808182608083808181608083BC
:1025C000E0E2F1E0808181608083EAE7F0E08081F1
:1025D0008460808380818260808380818160808349
:1025E0008081806880831092C10008953FB7F8947D
:1025F0008091141990911519A0911619B09117197D
:1026000026B5A89B05C02F3F19F00196A11DB11D4D
:102610003FBFBA2FA92F982F8827BC01CD01620F89
:10262000711D811D911D42E0660F771F881F991F44
:102630004A95D1F70895CF92DF92EF92FF920F93D0
:102640001F93CF93DF937C016A0110E000E00C152B
:102650001D0581F0EB01D701ED91FC910190F08116
:10266000E02D6991C7011995892B21F00F5F1F4F4C
:10267000BE01EDCFC801DF91CF911F910F91FF9067
:10268000EF90DF90CF900895FC01538D448D252F5E
:1026900030E0842F90E0821B930B541710F0CF96FC
:1026A000089501970895FC01918D828D981761F02E
:1026B000A28DAE0FBF2FB11D5D968C91928D9F5F45
:1026C0009F73928F90E008958FEF9FEF0895FC0124
:1026D000918D828D981731F0828DE80FF11D858DD7
:1026E00090E008958FEF9FEF0895FC01918D228D6A
:1026F000892F90E0805C9F4F821B91098F739927EF
:1027000008958EE691E1F1DF21E0892B09F420E0C4
:10271000822F0895FC01A48DA80FB92FB11DA35AD3
:10272000BF4F2C91848D90E001968F739927848FF1
:10273000A689B7892C93A089B1898C918370806414
:102740008C93938D848D981306C00288F389E02DB5
:1027500080818F7D80830895EF92FF920F931F9366
:10276000CF93DF93EC01F62E81E0888F9B8D8C8DCB
:1027700098131AC0E889F989808185FF15C09FB731
:10278000F894EE89FF896083E889F98980818370F4
:10279000806480839FBF81E090E0DF91CF911F91A3
:1027A0000F91FF90EF9008950B8D10E00F5F1F4F7A
:1027B0000F731127E02E8C8D8E110BC00FB607FC06
:1027C000FACFE889F989808185FFF5CFCE01A2DFB4
:1027D000F2CFEB8DEC0FFD2FF11DE35AFF4FF0828E
:1027E0009FB7F8940B8FEA89FB8980818062D1CFF3
:1027F000CF93DF93EC01888D8823B1F0AA89BB8940
:10280000E889F9898C9185FD03C0808186FD0CC023
:102810000FB607FCF7CF8C9185FFF2CF808185FF43
:10282000EDCFCE0177DFEACFDF91CF91089580E041
:1028300090E0892B49F080E090E0892B29F00E94FC
:10284000000081110E94000080E090E0892B49F097
:1028500080E090E0892B29F00E94000081110E9405
:10286000000080E090E0892B21F04BDF81110E9475
:10287000000080E090E0892B49F080E090E0892B17
:1028800029F00E94000081110C94000008954F92DD
:102890005F926F927F92AF92BF92CF92DF92EF9250
:1028A000FF920F931F93CF93DF9324E030E041E03A
:1028B00050E0D901A552BD4EFD0165917491861776
:1028C00097070CF066C041505109440F551F440F43
:1028D000551FEA01C352DD4EFE0105911491455288
:1028E0005D4EFA0165917491F901E352FD4EE59058
:1028F000F490FE01C590D490FD01C591D491FA01E8
:10290000A590B490861B970BBC01990F880B990B6F
:102910000E9466E12B013C01B7016C197D09072E6D
:10292000000C880B990B0E9466E19B01AC01C3016E
:10293000B2010E94C5E16B017C01BE016A197B09ED
:10294000072E000C880B990B0E9466E19B01AC01DD
:10295000C701B6010E945CE96B017C01B801110F4F
:10296000880B990B0E9466E19B01AC01C701B6017F
:102970000E9480E8DF91CF911F910F91FF90EF901F
:10298000DF90CF90BF90AF907F906F905F904F900F
:1029900008954F5F5F4F2C5F3F4F211561E0360771
:1029A00009F087CFE9EDF3E165917491072E000CF2
:1029B000880B990B0E9466E1DDCF4F925F926F9278
:1029C0007F92AF92BF92CF92DF92EF92FF920F93DE
:1029D0001F93CF93DF9324E030E041E050E0D90132
:1029E000A552BD4EFD0165917491861797070CF0B5
:1029F00066C041505109440F551F440F551FEA014D
:102A0000C352DD4EFE010591149145525D4EFA010F
:102A100065917491F901E352FD4EE590F490FE0149
:102A2000C590D490FD01C591D491FA01A590B490C0
:102A3000861B970BBC01990F880B990B0E9466E1CE
:102A40002B013C01B7016C197D09072E000C880B86
:102A5000990B0E9466E19B01AC01C301B2010E9487
:102A6000C5E16B017C01BE016A197B09072E000CD0
:102A7000880B990B0E9466E19B01AC01C701B6016E
:102A80000E945CE96B017C01B801110F880B990B66
:102A90000E9466E19B01AC01C701B6010E9480E87B
:102AA000DF91CF911F910F91FF90EF90DF90CF902A
:102AB000BF90AF907F906F905F904F9008954F5F61
:102AC0005F4F2C5F3F4F211561E0360709F087CF3C
:102AD000E9EDF3E165917491072E000C880B990BD9
:102AE0000E9466E1DDCF880F991F880F991FFC01B6
:102AF000E65FF84F40815181628173818D5F964E10
:102B0000FC014083518362837383E0910807F09155
:102B1000090782899389A489B5898093B518909310
:102B2000B618A093B718B093B8180895CF93DF9351
:102B30002FB7F894AC01440F551F440F551FFA01ED
:102B4000E65FF84F60817181828193812FBFEA0136
:102B5000CD50D74E0E9466E1288139814A815B8140
:102B60000E94C5E1DF91CF9108958091B01880FF58
:102B700024C089988FEF809334028091B01881FF30
:102B80001FC08F9A8FEF809335028091B0189FB746
:102B900082FF19C0F89480910B01826080930B0131
:102BA0009FBF8FEF809336028091B01883FF14C0CF
:102BB00016988FEF809337020895899A81E0DBCFD2
:102BC0008F9881E0E0CFF89480910B018D7F809306
:102BD0000B019FBF81E0E6CF169A81E0EBCF809199
:102BE000C11381111AC06091320270913302072E15
:102BF000000C880B990B0E9466E19B01AC0160916F
:102C0000D5127091D6128091D7129091D8120E944D
:102C100060E1881F8827881F089580E008954F92FB
:102C20005F926F927F928F929F92AF92BF92EF923C
:102C3000FF920F931F93CF93DF93CDE7D3E18DE8FE
:102C4000E82E83E1F82E0DE613E1412C512C3201E0
:102C500043946991799189919991F701819091902B
:102C6000A190B1907F010E9464E1A50194010E94AE
:102C7000C5E10E94C9E9F801619371938193919331
:102C80008F01461657066806790610F42B013C01A1
:102C9000F3E1CD38DF07E9F66FEF7FEFCB01A3015A
:102CA00092010E9422E82093691330936A134093A3
:102CB0006B1350936C13DF91CF911F910F91FF9085
:102CC000EF90BF90AF909F908F907F906F905F90AC
:102CD0004F900895EF92FF920F931F93CF93DF933E
:102CE000E0900807F0900907F70182819381A481A1
:102CF000B581181619061A061B06DCF48091B01867
:102D000080FF17C0809127139CB195FB992790F9FC
:102D10008E7F89278093271390912613892380FF24
:102D200008C08091CA0881608093CA0890E080E062
:102D3000DADEF70186819781A085B185181619061C
:102D40001A061B0614F58091B01881FF1EC08091F1
:102D500027139091030191FB002700F910E01195D2
:102D600001951109082702701127082700932713DE
:102D700080912613082301FF08C08091CA08826051
:102D80008093CA0881E090E0AEDEF70182859385EA
:102D9000A485B585181619061A061B063CF5809100
:102DA000B01882FF23C0809136078823F9F0809104
:102DB000271399B193FB992790F9C92FF0E0DF2FE2
:102DC000D195C195D109C827C470DD27C827C09304
:102DD000271380912613C823C2FF08C08091CA0818
:102DE00084608093CA0882E090E07DDE80912713A2
:102DF00080932613DF91CF911F910F91FF90EF9059
:102E00000895FC0120E03EE2DB014D91BD0140321E
:102E100039F0283009F43193DB0111974C9141933B
:102E20002F5F2B3089F710820895089590E080E09D
:102E3000089561E0FC01808156CA8EBD0DB407FE85
:102E4000FDCF08958FEF8EBD0DB407FEFDCF8EB57B
:102E50000895CF92DF92EF92FF92C0902113D0900D
:102E60002213E0902313F0902413809125138823DC
:102E700081F120E030E0A901C701B6010E9460E1C4
:102E8000882339F120E030E040E05FE3C701B6017C
:102E90000E94C5E19B01AC010E94C5E12BED3FE022
:102EA00049E450E40E94C5E19B01AC0160E070E0A0
:102EB00080E89FE30E945CE960936513709366135A
:102EC0008093671390936813FF90EF90DF90CF90FB
:102ED000089560E070E080E89FE3EECFCF92DF924C
:102EE000EF92FF92CF93DF93EC01C0906206D090F7
:102EF0006306E0906406F0906506A701960168817C
:102F000079818A819B810E9460E187FF04C0C88229
:102F1000D982EA82FB82C0906606D0906706E09074
:102F20006806F0906906A70196016C817D818E810B
:102F30009F810E9460E187FF04C0CC82DD82EE8227
:102F4000FF82C0906A06D0906B06E0906C06F0900D
:102F50006D06A7019601688579858A859B850E9403
:102F600060E187FF04C0C886D986EA86FB86C090E8
:102F70001002D0901102E0901202F0901302A7010B
:102F80009601688179818A819B810E94A7EA18163F
:102F900024F4C882D982EA82FB82C0901402D090C5
:102FA0001502E0901602F0901702A70196016C81BD
:102FB0007D818E819F810E94A7EA181624F4CC821D
:102FC000DD82EE82FF82C0901802D0901902E0905C
:102FD0001A02F0901B02A7019601688579858A85FF
:102FE0009B850E94A7EA181624F4C886D986EA862B
:102FF000FB86DF91CF91FF90EF90DF90CF90089507
:103000005F9AEDE1F7E010828A9A11829FB7F894F7
:10301000A8E0B1E08C9181608C939FBF1282129ADC
:103020000895CF93DF93CDE5DAE0FE0184912196F8
:1030300081110AC0C5E5DAE0FE018491219688235A
:1030400031F00E94579CF8CF0E94579CEECF6599B3
:1030500008C0C8E5D3E08991882331F00E94579CCD
:10306000FACFCEE4D3E0F7CF8AE00E94579CCDE4BC
:10307000DAE0FE0184912196882319F00E94579C82
:10308000F8CF80910301CEE4D3E081FD02C0C8E512
:10309000D3E08991882319F00E94579CFACF8AE0E7
:1030A0000E94579CC5E4DAE0FE01849121968823B2
:1030B00019F00E94579CF8CF4B9B08C0CEE4D3E098
:1030C0008991882331F00E94579CFACFC8E5D3E05C
:1030D000F7CF8AE0DF91CF910C94579CBC0190E030
:1030E00080E04AE00E947A9E8DE00E94579C8AE030
:1030F0000C94579CCF92DF92EF92FF92CF93DF9385
:103100006A017B01EC01FE0184912196882319F06C
:103110000E94579CF8CF4AE0C701B601DF91CF91DA
:10312000FF90EF90DF90CF900C947A9ECF93DF9337
:103130000E94149CE091E808F0E0ED5BF84F80817C
:10314000882379F0C2E5D5E0FE0184912196882399
:1031500019F00E94579CF8CF8AE0DF91CF910C9430
:10316000579CDF91CF910895AF92BF92CF92DF929B
:10317000EF92FF920F931F93CF93DF930F92CDB7F0
:10318000DEB76C018B01590180911F1381111AC0A8
:103190007B01E40EF51EF601808191810E94FDE71E
:1031A0008983F80181938F01BE016F5F7F4FC50155
:1031B00007D8F60180819181019691838083E01682
:1031C000F10649F70F90DF91CF911F910F91FF907A
:1031D000EF90DF90CF90BF90AF9008954F925F92A5
:1031E0006F927F92AF92BF92CF92DF92EF92FF9257
:1031F0000F931F93CF93DF938C01EB01FC0147A04A
:1032000050A461A472A4AFA0B8A4C9A4DAA4950183
:10321000A601C301B2010E9460E187FF3EC0A30185
:103220009201C301B2010E94C5E12B013C01F801EA
:1032300063A974A985A996A990589B01AC010E9425
:1032400080E8F80127A530A941A952A90E94C5E14B
:103250009B01AC01C301B2010E947FE80E94EDEA2C
:103260007B018C019B01AC01B501C6010E9460E1AC
:1032700087FF02C0750186019701A801B501C6014B
:103280000E9460E1882349F0C701D8018FA398A765
:10329000A9A7BAA7888181608883DF91CF911F9108
:1032A0000F91FF90EF90DF90CF90BF90AF907F9005
:1032B0006F905F904F9008954F925F926F927F92C0
:1032C0008F929F92AF92BF92CF92DF92EF92FF9236
:1032D000CF93DF93CDB7DEB76A970FB6F894DEBF12
:1032E0000FBECDBF9A8F898F5B014A01DC01D79653
:1032F0006D917D918D919C91DA970E9464E16B01B3
:103300007C01F50120813181428153810E94C5E118
:103310000E9446E90E94C9E93B015C01D4012D915C
:103320003D914D915C91C701B6010E94C5E10E949B
:1033300046E90E94C9E96D827E82AF82B8862D81FE
:103340003E814F815885283731054105510540F4AC
:1033500028E730E040E050E02D833E834F835887DC
:1033600069837A838B839C8389819A81AB81BC81B9
:1033700088379105A105B10540F428E730E040E029
:1033800050E029833A834B835C83E98DFA8DED5BB2
:10339000FF4F80819181A281B3818D879E87AF8706
:1033A000B88BBC01CD010E9466E169877A878B8763
:1033B0009C876D817E818F8198850E9464E1698BF5
:1033C0007A8B8B8B9C8B20E030E0A90169857A8514
:1033D0008B859C850E9460E1882309F432C1A70196
:1033E0009601C701B6010E94C5E14B015C01298924
:1033F0003A894B895C89CA01B9010E94C5E19B01E8
:10340000AC01C501B4010E947FE84B015C01298534
:103410003A854B855C85CA01B9010E9480E89B0111
:10342000AC01C501B4010E945CE90E9446E90E941A
:10343000C4E92B013C016D857E858F859889909527
:103440008095709561957F4F8F4F9F4F0E9466E1E9
:103450004B015C0169817A818B819C810E9464E1CE
:103460006D877E878F87988B20E030E0A901C501AA
:10347000B4010E9460E1882309F4E7C02D853E85F0
:103480004F855889CA01B9010E94C5E16D8B7E8BB9
:103490008F8B988FA7019601C701B6010E94C5E1E5
:1034A0009B01AC016D897E898F89988D0E947FE890
:1034B0006B017C01A5019401C501B4010E9480E863
:1034C0009B01AC01C701B6010E945CE90E94F5E9CD
:1034D000A98DBA8D52968D909D90AD90BC905597C8
:1034E00075016401C418D508E608F7080E94C4E90C
:1034F000C61AD70AE80AF90AF7FE67C020E030E0EA
:10350000A90169857A858B859C850E9460E1882365
:1035100009F49FC0C501B4010E9464E16B017C0104
:1035200029853A854B855C85CA01B9010E9480E8EE
:103530009B01AC01C701B6010E94C5E16B017C0192
:1035400029893A894B895C89CA01B9010E94C5E180
:103550009B01AC01C701B6010E947FE86B017C01B1
:103560002D853E854F855889CA01B9010E94C5E164
:103570009B01AC01C701B6010E9480E86B017C0190
:1035800020E030E040E850E469857A858B859C85B1
:103590000E94C5E19B01AC01C701B6010E945CE934
:1035A0000E9446E90E94C4E92B013C0177FE03C05A
:1035B000412C512C3201481459046A047B0410F048
:1035C00024013501C12CD12C76018FB7F894E98DF7
:1035D000FA8D908193FD1FC0DF01468A578A608E65
:1035E000718EC40CD51CE61CF71CC28ED38EE48EE3
:1035F000F58E2D813E814F81588523AF34AF45AF85
:1036000056AFDF9629813A814B815C812D933D93A2
:103610004D935C9313978FBF6A960FB6F894DEBFF5
:103620000FBECDBFDF91CF91FF90EF90DF90CF9095
:10363000BF90AF909F908F907F906F905F904F90D2
:10364000089560E070E0CB01F0CE60E070E0CB0167
:103650003DCF60E070E0CB01A3CF7F928F929F922D
:10366000AF92BF92CF92DF92EF92FF920F931F9390
:10367000CF93DF930F92CDB7DEB77C0159018091D4
:103680001F13811136C08B016B01C40ED51E0C15A2
:103690001D0579F1F70180809180F80171908F010B
:1036A0007982C4010E94FDE7781691F1672DC4016B
:1036B0000E9405E8C4010E94FDE79981891741F144
:1036C00005E018E1F80184910F5F1F4F81110BC0D5
:1036D00005ED16E0F80184910F5F1F4F882331F04C
:1036E0000E94579CF7CF0E94579CECCF81E08093BB
:1036F0001F130F90DF91CF911F910F91FF90EF90CB
:10370000DF90CF90BF90AF909F908F907F90089563
:10371000BE016F5F7F4FC5010E94E010F7018081FD
:103720009181019691838083B2CF4F925F926F9285
:103730007F928F929F92AF92BF92EF92FF920F93E0
:103740001F93CF93DF93EC01FC01ED57F94F1491D8
:10375000029709F444C07E01EE0CFF1CEE0CFF1C26
:10376000F701E958F94F4590559065907490612F95
:10377000110F770B880B990B0E9466E14B015C01DE
:1037800020E030E040EC5FE3C301B2010E94C5E1FC
:10379000A50194010E94C5E1AB01BC0100E010E06D
:1037A0009801CE010E94449AF701E559F94FC230C1
:1037B000D10551F503E716E0F80165917591859102
:1037C000949120E030E040EA50E40E9460E1F8018A
:1037D00087FF1AC0E0E070E060EA80E41DC081E08D
:1037E0000E948C97882309F4B6CFDF91CF911F9167
:1037F0000F91FF90EF90BF90AF909F908F907F9030
:103800006F905F904F90089585919591A591B49197
:10381000E82F792F6A2F8B2F2E2F372F462F582FD7
:10382000C501B4010E94C5E14B015C0120E030E01C
:10383000A9010E9460E1882309F447C000E010E07C
:103840009801B501A4017058CE010E94449AFE016E
:10385000E859F94F6491611117C005E018E1F801CA
:1038600084910F5F1F4F81110BC006E416E0F80131
:1038700084910F5F1F4F882331F00E94579CF7CF30
:103880000E94579CECCF6AE0F701EA5CF94F459043
:1038900055906590749070E090E080E00E9466E141
:1038A0009B01AC01C301B2010E945CE92B013C0108
:1038B000A5019401C501B4010E9480E8AB01BC01DF
:1038C00093018201CE010E94449A81E0FE01E15BF6
:1038D000F94F8083FE01E35EF84F8083F701ED5BD3
:1038E000F94F1082118212821382CE010E94B29887
:1038F000F701E65DF94F2591359145915491870186
:103900000553174FF701E552F74F608171818281AE
:1039100093810E9480E8F80160837183828393839E
:10392000C230D105D1F42091560C3091570C409102
:10393000580C5091590C6091D3087091D408809123
:10394000D5089091D6080E947FE86093D3087093C1
:10395000D4088093D5089093D6080E94CE99D701B9
:10396000AE5AB94FF701E553F74F4081518162815B
:1039700073814D935D936D937C931397229709F018
:1039800034CF80E0DF91CF911F910F91FF90EF90A6
:10399000BF90AF909F908F907F906F905F904F906F
:1039A0000C948C972F923F924F925F926F927F92DE
:1039B0008F929F92AF92BF92CF92DF92EF92FF923F
:1039C0000F931F93CF93DF93CDB7DEB7EC970FB66E
:1039D000F894DEBF0FBECDBF69AF7AAF8BAF9CAF9F
:1039E0005A8F498F3C8F2B8F8090CB089090CC08BA
:1039F000A090CD08B090CE088091DB089091DC08B3
:103A0000A091DD08B091DE088D8F9E8FAF8FB8A397
:103A1000A091EE06B091EF06BEA3ADA3BD01BB0F12
:103A2000880B990B0E9466E16FA378A789A79AA7D4
:103A30008091370690913806A0913906B0913A06E8
:103A40008BA79CA7ADA7BEA74090CF085090D008E9
:103A50006090D1087090D2088091DF089091E008C2
:103A6000A091E108B091E20889A39AA3ABA3BCA3FB
:103A7000A091F006B091F106B8ABAFA7BD01BB0FA6
:103A8000880B990B0E9466E169AB7AAB8BAB9CAB60
:103A900080913B0690913C06A0913D06B0913E0678
:103AA0008DAB9EABAFABB8AF8091520690915306F1
:103AB000A0915406B0915506898B9A8BAB8BBC8B29
:103AC0008091560690915706A0915806B0915906DC
:103AD0008D8B9E8BAF8BB88F2D8D3E8D4F8D58A1CA
:103AE000C501B4010E947FE82FA138A549A55AA5B8
:103AF0000E947FE82BA53CA54DA55EA50E94C5E1CF
:103B00000E94C4E97B0193E0E916F1041CF092E005
:103B1000E92EF12CF7FE02C0F12CE12C29A13AA1EB
:103B20004BA15CA1C301B2010E947FE829A93AA977
:103B30004BA95CA90E947FE82DA93EA94FA958ADC9
:103B40000E94C5E10E94C4E91B01633071051CF0AD
:103B500082E0282E312C37FE02C0312C212C2D8DF5
:103B60003E8D4F8D58A169897A898B899C890E94E5
:103B70007FE82FA138A549A55AA50E947FE82BA56B
:103B80003CA54DA55EA50E94C5E10E94C4E98B013C
:103B90006330710514F002E010E017FF02C010E07E
:103BA00000E029A13AA14BA15CA16D897E898F8992
:103BB000988D0E947FE829A93AA94BA95CA90E9487
:103BC0007FE82DA93EA94FA958AD0E94C5E10E94EA
:103BD000C4E96330710514F062E070E077FF02C061
:103BE00070E060E0E016F10619F56215730521F545
:103BF00069AD7AAD8BAD9CAD0E942C98EC960FB65A
:103C0000F894DEBF0FBECDBFDF91CF911F910F9112
:103C1000FF90EF90DF90CF90BF90AF909F908F90EC
:103C20007F906F905F904F903F902F900C942298D0
:103C30003E2D0E151F050CF0302F621573050CF08C
:103C400079C0222DE016F10609F079C0822F022EEC
:103C5000000C990B01E010E002C0000F111F2A9523
:103C6000E2F72B8D3C8D20233123232B09F220E119
:103C7000E2E5F6E0DE01119601900D922A95E1F75A
:103C80002091F4063091F506829FB001839F700D5C
:103C9000929F700D1124AFA5B8A96A0F7B1F072E44
:103CA000000C880B990B0E9466E129A13AA14BA157
:103CB0005CA10E9480E8609356067093570680933B
:103CC000580690935906A30192010E947FE86B0168
:103CD0007C01A30192016D897E898F89988D0E9454
:103CE0007FE89B01AC01C701B6010E945CE96B0152
:103CF0007C01A501940169897A898B899C890E943C
:103D00007FE8A70196010E94C5E1A50194010E94E8
:103D100080E8609352067093530680935406909304
:103D20005506009510952B8D3C8D202331233C8F1B
:103D30002B8F79C0262FE016F10609F4DFC0832F00
:103D4000032E000C990B01E010E002C0000F111FC0
:103D50003A95E2F7498D5A8D40235123452B09F4BA
:103D6000CDC020E1E2E5F6E0DE01119601900D9272
:103D70002A95E1F72091F2063091F306829FB00177
:103D8000839F700D929F700D11242DA13EA1620F93
:103D9000731F072E000C880B990B0E9466E12D8D76
:103DA0003E8D4F8D58A10E9480E86093520670931B
:103DB00053068093540690935506A50194010E94E2
:103DC0007FE86B017C01A501940169897A898B895F
:103DD0009C890E947FE89B01AC01C701B6010E944B
:103DE0005CE96B017C01A30192016D897E898F8959
:103DF000988D0E947FE8A70196010E94C5E1A3016A
:103E000092010E9480E86093560670935706809353
:103E100058069093590600951095898D9A8D8023A8
:103E200091239A8F898F8090D3089090D408A09086
:103E3000D508B090D608A501940160915A067091FA
:103E40005B0680915C0690915D060E947FE8A70169
:103E500096010E94C5E1A50194010E9480E860934B
:103E60005A0670935B0680935C0690935D06809083
:103E7000D7089090D808A090D908B090DA08A5018A
:103E8000940160915E0670915F068091600690914A
:103E900061060E947FE8A70196010E94C5E1A50185
:103EA00094010E9480E860935E0670935F068093A1
:103EB0006006909361062B8D3C8D498D5A8D69ADBE
:103EC0007AAD8BAD9CAD6EDD89899A89AB89BC8951
:103ED00089839A83AB83BC838D899E89AF89B88D92
:103EE0008D839E83AF83B88780E1FE013196A2E582
:103EF000B6E001900D928A95E1F776CD62157305D3
:103F000009F0A4CE75CECF92DF92EF92FF92CF93BD
:103F1000DF9380914F02882321F082E596E00E9492
:103F20006E170E94149C8091FF0683FD6FC0C090A5
:103F30005E06D0905F06E0906006F09061062091EA
:103F4000D7083091D8084091D9085091DA08C701B4
:103F5000B6010E9460E1882309F458C00E94EF1561
:103F60008823E1F0C092D708D092D808E092D9080F
:103F7000F092DA08C5E0D8E1FE0184912196811122
:103F80000AC0C4E7D5E0FE0184912196882331F070
:103F90000E94579CF8CF0E94579CEECFC0905E06BF
:103FA000D0905F06E0906006F09061062091D708FF
:103FB0003091D8084091D9085091DA08C701B6016C
:103FC0000E947FE820E030E048E453E40E94A7EA42
:103FD0001816E4F4C092D708D092D808E092D90815
:103FE000F092DA08C5E0D8E1FE01849121968111B2
:103FF0000AC0C5E5D5E0FE0184912196882331F001
:104000000E94579CF8CF0E94579CEECFC090500260
:10401000D0905102E0905202F0905302209152064B
:104020003091530640915406509155066091CB084B
:104030007091CC088091CD089091CE080E9460E1EB
:10404000811120C0209156063091570640915806A4
:10405000509159066091CF087091D0088091D10895
:104060009091D2080E9460E181110CC0C701B60195
:104070000E942C98DF91CF91FF90EF90DF90CF902E
:104080000C9422986091430270914402072E000C18
:10409000880B990B0E9466E1A70196010E94C5E179
:1040A0002AE037ED43E25CE30E94C5E12091FE0681
:1040B0002223F1F220914A022111DACF2FEF3FEFB4
:1040C0004FEF5FEFDF91CF91FF90EF90DF90CF90B8
:1040D00069CC0F931F93CF93DF9320915C122A3505
:1040E00009F052C090915D12953A09F04DC080914F
:1040F0005B12833008F448C02093AB129093AC124B
:104100008093AD1290915E129093AE12903809F0A8
:1041100040C090915F129093AF12E7E6F2E1A0EBFE
:10412000B2E130E020E08250990B408132964D930D
:104130002F5F3F4F28173907C4F30BEA12E1D0E095
:10414000C0E0D8016D918D018EE691E10E94AC1323
:10415000219680915B1290E002968C179D078CF758
:10416000EBE5F2E180E5DF011D928A95E9F7EBEAE4
:10417000F2E18AE1DF011D928A95E9F78AE58093F1
:104180005C1285EA80935D12DF91CF911F910F91B0
:104190000895833061F4913809F043C080915F1233
:1041A0008093AF12809163128093B012C6CF923881
:1041B00011F520915F1230916012322723273227A8
:1041C0003093B0122093AF12E1EBF2E130E020E047
:1041D0008350990B281739070CF0AFCFD901AE7F68
:1041E000A959BD4E4C9111965C91508341832E5F2D
:1041F0003F4F3296EFCF843009F09FCF933809F0CC
:104200009CCF80915F129091601298278927982700
:104210009093B0128093AF12809163128093B11289
:104220008CCF923809F089CFC4CF2F923F924F9212
:104230005F926F927F928F929F92AF92BF92CF9236
:10424000DF92EF92FF92CF936090D3127090D412CE
:104250008090D5129090D612A090D712B090D8121C
:10426000B301072C000C880B990B0E9466E1A50195
:1042700094010E947FE86B017C01C092591BD0928F
:104280005A1BE0925B1BF0925C1B20ED3CEC4CE473
:104290005DE360916A1170916B1180916C11909146
:1042A0006D110E94C5E11B012C012091551B30911D
:1042B000561B4091571B5091581BC501B4010E94D9
:1042C0007FE89B01AC01C201B1010E94C5E11B0165
:1042D0002C0123E333E343E75FE36091511B7091CB
:1042E000521B8091531B9091541B0E94C5E19B016E
:1042F000AC01C201B1010E9480E86093511B709330
:10430000521B8093531B9093541B8092551B909289
:10431000561BA092571BB092581B80914F1B909137
:10432000501B892B41F4C501B4010E94C4E970936C
:10433000501B60934F1BC091691120E030E0A90130
:10434000C701B6010E9460E118160CF45AC0C130D2
:1043500009F057C080916711882309F44FC087E0A6
:1043600090E0909368128093671285E080935B12CF
:1043700082E880935E1284E190E1A0E0B0E0809357
:104380005F1290936012A0936112B0936212A1DE4B
:1043900080EA9FE0909366118093651110926911F5
:1043A0008090591B90905A1BA0905B1BB0905C1B97
:1043B00020E030E040E251E4C501B4010E94A7EAE8
:1043C00018160CF045C081E080934E1BC12CD12CF7
:1043D0008FE7E82E83E4F82EC701B601CF91FF9056
:1043E000EF90DF90CF90BF90AF909F908F907F9095
:1043F0006F905F904F903F902F90089583E190E0F1
:10440000B0CFC23069F620E030E0A901672881F41E
:1044100080914F1B9091501B6BEF7FEF681B790BC6
:10442000072E000C880B990B0E9466E19B01AC01E2
:10443000C701B6010E94A7EA87FDB2CF809167113C
:10444000882319F089E090E08CCF85E190E089CF56
:1044500020E030E040E251ECC501B4010E9460E18F
:1044600087FD06C08091D3129091D412892B39F424
:1044700081E080934E1BC12CD12C7601ADCF809171
:104480004E1B882351F010924A1B10924B1B109226
:104490004C1B10924D1B10924E1B209161113091BC
:1044A00062114091631150916411C501B4010E94E1
:1044B000C5E16B017C0120914A1B30914B1B40915F
:1044C0004C1B50914D1BC501B4010E9480E82B018B
:1044D0003C0140924A1B50924B1B60924C1B7092C5
:1044E0004D1B20915D1130915E1140915F115091F3
:1044F00060110E94C5E1A70196010E9480E8209109
:10450000511B3091521B4091531B5091541B0E94E0
:104510007FE86B017C0120E030E04FE753E40E942C
:10452000A7EA20E030E0A9011816B4F4C501B401EF
:104530000E94A7EA18160CF049CFA5019401C30107
:10454000B2010E947FE860934A1B70934B1B8093DB
:104550004C1B90934D1B3ACFC701B6010E9460E1FE
:1045600087FF3ACF20E030E0A901C501B4010E94E5
:1045700060E187FF80CFA5019401C301B2010E94D1
:104580007FE860934A1B70934B1B80934C1B909366
:104590004D1B71CF61157105E1E08E079105B8F0F3
:1045A000909368128093671270936A1260936912F5
:1045B00087E080935B1282E880935E1220935F1203
:1045C00030936012409361125093621282CD7093C7
:1045D00068126093671285E0ECCFEF92FF920F9321
:1045E0001F93CF93DF93DC010D900020E9F79D012D
:1045F00021503109281B390BD1F1EAE5E093AB12C8
:10460000E5EAE093AC12E3E0E20FE093AD12E2E8FA
:10461000E093AE125427452754275093B01240938D
:10462000AF12FC01A1EBB2E190E080E041914D932B
:10463000019682179307D4F38BEAE82E82E1F82ED5
:1046400010E000E0E9012596F70161917F018EE617
:1046500091E10E94AC130F5F1F4FC017D107A4F761
:10466000EBEAF2E18AE1DF011D928A95E9F7DF9139
:10467000CF911F910F91FF90EF9008958F929F928D
:10468000AF92BF92CF92DF92EF92FF926B017C01CB
:104690000E94F6124B015C01C114D104E104F10443
:1046A000B9F00E94F612681979098A099B09683ED7
:1046B00073408105910580F321E0C21AD108E10819
:1046C000F10888EE880E83E0981EA11CB11CE4CF8F
:1046D000FF90EF90DF90CF90BF90AF909F908F9022
:1046E00008950F931F93CF938C0184E080935D0C0A
:1046F00010925C0CC0915C0C64990BC0C2335CF4EA
:104700006FE070E080E090E0B9DFCF5FC0935C0CB9
:10471000F1CFC133DCF10115110529F100935A0CD9
:1047200080916711882349F181E09AE5909368129E
:104730008093671286E290E090936A1280936912E8
:1047400087E080935B1282E880935E1284E890E0B9
:10475000A0E0B0E080935F1290936012A09361128A
:10476000B0936212B6DC10925C0C10925D0C81E08A
:1047700090E0CF911F910F91089581E09AE5909379
:104780006812809367128EE490E0D6CF10925C0C92
:1047900010925D0C90E080E0ECCF2FB7F894609120
:1047A00010197091111980911219909113192FBF3E
:1047B0000895CF92DF92EF92FF92C090D512D090E1
:1047C000D612E090D712F090D8126091D312709167
:1047D000D41266507109072E000C880B990B0E94A9
:1047E00066E19B01AC01C701B6010E9460E187FF51
:1047F00020C020E030E040E050E4C701B6010E9454
:1048000080E80E94C9E97093621B6093611BC5DF59
:10481000605E714B8F4F9F4F60935D1B70935E1B6B
:1048200080935F1B9093601BFF90EF90DF90CF9081
:10483000089510925D1B10925E1B10925F1B1092E8
:10484000601BF2CF8091C5129091C612019702971A
:1048500078F41092C6121092C5129FDF6093CF12A7
:104860007093D0128093D1129093D21281E0089568
:1048700080E008950F931F93CF93DF93EC018DDFBA
:104880008B010E9422178F3F61F087DF601B710B45
:104890006C177D07B0F380E0DF91CF911F910F91EE
:1048A000089581E0F9CF8F929F92AF92BF92EF92DD
:1048B000FF920F931F93CF937C01C62F49015A019A
:1048C000FC019281892F806A86958CBD90FD03C082
:1048D00081E0963009F480E08DBD60E0F7018081D1
:1048E0000E9473118CE291E0C5DF8C2F80640E94DE
:1048F0001D1708E110E0D501C401002E04C0B695D3
:10490000A795979587950A94D2F70E941D1708508E
:104910001109083FFFEF1F0771F785E9CC2321F04C
:1049200087E8C83009F08FEF0E941D17CC3011F4D2
:104930000E942217C0E00E942217F701838387FF9D
:1049400004C0CF3F11F0CF5FF6CFCF911F910F91F1
:10495000FF90EF90BF90AF909F908F9008950F932E
:104960001F93CF93DF93EC0189018C81833039F061
:1049700089E0440F551F661F771F8A95D1F79A016A
:10498000AB0168E1CE018FDF882319F086E08983CF
:1049900038C08EEF8EBDF801C8019E5F0DB407FED2
:1049A000FDCF20812EBD0DB407FEFDCF21812EBD90
:1049B0003296E817F90791F70DB407FEFDCF8FEF98
:1049C0000E941D178FEF0E941D170E9422178B83D4
:1049D0008F71853089F488E592E04CDF182F87E1EC
:1049E0001123A9F220E030E0A9016DE0CE015BDFE8
:1049F000882361F086E1CBCF83E18983CE010E94D9
:104A00001917CE010E94191710E007C00E94221743
:104A10008111F0CFCE010E941917812FDF91CF9124
:104A20001F910F9108950F931F938091C51290913C
:104A3000C612019711F5B1DE0091CB121091CC1284
:104A40002091CD123091CE12601B710B820B930B13
:104A500028EE33E040E050E00E9422E86091C71267
:104A60007091C8128091C9129091CA12620F731F7F
:104A7000841F951F1F910F9108956091CF1270911F
:104A8000D0128091D1129091D212D6CF8091C512BE
:104A90009091C61281309105A9F10297D1F4C3DF3C
:104AA0006093C7127093C8128093C9129093CA1270
:104AB00081E090E09093C6128093C5126EDE609301
:104AC000CB127093CC128093CD129093CE1281E0D2
:104AD00008951092CB121092CC121092CD12109217
:104AE000CE121092CF121092D0121092D1121092B8
:104AF000D2121092C7121092C8121092C9121092BC
:104B0000CA12D6CF80E008958091C5129091C61246
:104B1000019789F482E090E09093C6128093C512C9
:104B20003CDE6093CF127093D0128093D112909399
:104B3000D21281E0089580E00895EF92FF920F93E2
:104B40001F93CF93DF93EC0179018C81833039F08F
:104B500089E0440F551F661F771F8A95D1F79A0188
:104B6000AB0161E1CE019FDE882339F084E08983C7
:104B7000CE010E94191780E039C00FDE8B010E9420
:104B800022178B838F3F79F408DE601B710B6D3227
:104B90007140A8F381E18983CE010E9419178FEF3C
:104BA0000E941D17E8CF8E3F11F08FE0F4CF8FEFFA
:104BB0008EBDF701D701A150BE4F0DB407FEFDCF4A
:104BC0009EB591938EBDAE17BF07B9F70DB407FE22
:104BD000FDCF8EB58C930E9422170E942217CE0122
:104BE0000E9419178FEF0E941D1781E0DF91CF916E
:104BF0001F910F91FF90EF9008951F921FB61F9283
:104C000011242F933F938F939F93AF93BF938091E2
:104C1000101990911119A0911219B0911319309196
:104C20000F1923E0230F2D3750F50196A11DB11D5B
:104C300020930F198093101990931119A0931219B2
:104C4000B09313198091141990911519A091161908
:104C5000B09117190196A11DB11D8093141990935D
:104C60001519A0931619B0931719BF91AF919F9181
:104C70008F913F912F911F901FBE1F90189526E88E
:104C8000230F0296A11DB11DD3CF1F920F920FB615
:104C90000F9211240BB60F922F933F934F935F9374
:104CA0006F937F938F939F93AF93BF93EF93FF93F4
:104CB0008EE691E10E948A13FF91EF91BF91AF912F
:104CC0009F918F917F916F915F914F913F912F9124
:104CD0000F900BBE0F900FBE0F901F9018952F9343
:104CE0002FB72F932BB72F938F939F93EF93FF9310
:104CF000E0917E11F0917F118081E0918411F0911B
:104D0000851182FD1BC09081809187118F5F8F7309
:104D100020918811821741F0E0918711F0E0E2596B
:104D2000FE4E958F80938711FF91EF919F918F9108
:104D30002F912BBF2F912FBF2F9118958081F4CFEA
:104D40009093D4128093D31234CDCF92DF92EF920E
:104D5000FF92C0902007D0902107E0902207F090AA
:104D60002307609147077091480766507109072E25
:104D7000000C880B990B0E9466E1A70196010E9426
:104D8000A7EA181604F520E030E040E050E4C7013F
:104D9000B6010E9480E80E94C9E97093CE18609322
:104DA000CD18FBDC605A75418F4F9F4F6093C91837
:104DB0007093CA188093CB189093CC18FF90EF9003
:104DC000DF90CF9008951092C9181092CA181092CF
:104DD000CB181092CC18F2CF1092D71890E080E048
:104DE000AFDF1092480710924707AFDF2BDD90E04E
:104DF00080E0A6DF10921C072C98109248071092B2
:104E0000470710921B079FB7F894E2E0F1E080811A
:104E10008F7D80839FBF0895CEE4D8E1FE01849109
:104E2000219681110AC0CEE2D8E1FE01849121963B
:104E3000882331F00E94579CF8CF0E94579CEECFF8
:104E4000CBDF0E940018FFEF2BE48DE1F1502040F2
:104E50008040E1F700C00000F8949FEFE4E3FCE03D
:104E60009150E040F040E1F700C00000B5DFA895A8
:104E7000FECFFF920F931F93CF93DF93182F062F30
:104E8000F72E80915A02882309F439C0CEE4D8E184
:104E9000FE0184912196811111C0C02FDF2DFE01EA
:104EA0008491219681110DC0C0E1D8E1FE01849169
:104EB0002196882349F00E94579CF8CF0E94579C66
:104EC000E7CF0E94579CEBCFCBE0D8E117FD0FC096
:104ED000612F110F770B880B990B0E942B9F8AE093
:104EE000DF91CF911F910F91FF900C94579CFE0181
:104EF00084912196882319F00E94579CF8CFDF9166
:104F0000CF911F910F91FF9008951F920F920FB6AE
:104F10000F9211240BB60F920F931F932F933F9371
:104F20004F935F936F937F938F939F93AF93BF93B1
:104F3000CF93DF93EF93FF938091EB18811159C0CA
:104F400081E08093EB1880916E008B7F80936E00E0
:104F5000789480913C028F3708F464C08F57909109
:104F60001C079093EA18992309F45AC02C9A90913F
:104F70001B079093E9182FB7992309F45EC0F894A2
:104F8000909102019062909302012FBF8F5F8093F6
:104F90003C0280913A0290913B028230910509F4E3
:104FA00088C008F04FC0009709F468C0019709F461
:104FB00071C0C0913A02D0913B02209741F4809198
:104FC00039028F5F80310CF088C080933902CE01A6
:104FD000019665E070E00E94A7DC90933B0280930D
:104FE0003A02F8941092EB1880916E0084608093DE
:104FF0006E00FF91EF91DF91CF91BF91AF919F91A3
:105000008F917F916F915F914F913F912F911F9160
:105010000F910F900BBE0F900FBE0F901F90189521
:105020002C98A5CF9091EA18891708F02C989091A8
:10503000E918891708F4AACF2FB7F89490910201C4
:105040009F7DA1CF83309105C9F1049709F0B1CFBD
:105050008091E818811103C086E08093E818809160
:10506000E81881508093E818882309F4A2CF83E0E0
:1050700090E090933B0280933A029BCF88E080932C
:105080007B0085E480937C0080917A00806480932B
:105090007A008FCF20917800309179008091DE18CE
:1050A0009091DF18820F931F9093DF188093DE1882
:1050B00080CF88E080937B0086E4E4CF2091780065
:1050C000309179008091DC189091DD18820F931F48
:1050D0009093DD188093DC186CCF10923902809188
:1050E0001A07811113C08091DE189091DF189093F8
:1050F000DB188093DA188091DC189091DD1890937A
:10510000D9188093D81881E080931A07EEEDF8E162
:105110008AE0DF011D928A95E9F71092DD1810925E
:10512000DC180091DA181091DB188091EE1890913C
:10513000EF18081719075CF48091D3129091D412DC
:105140001816190624F46DEF73E180E092DE809169
:105150003F0290914002801791075CF48091D31236
:105160009091D4121816190624F46BEE73E180E0C6
:1051700080DE0091D8181091D9188091EC18909188
:10518000ED18801791075CF08091470790914807D0
:105190001816190624F46DEF73E18FEF6ADE809123
:1051A0003D0290913E02081719070CF410CF809130
:1051B000470790914807181619060CF008CF6BEEB8
:1051C00073E18FEF56DE03CF2F923F924F925F92A3
:1051D0006F927F928F929F92AF92BF92CF92DF9207
:1051E000EF92FF920F931F93CF93DF9300D000D0E5
:1051F000CDB7DEB71C017A8369832B833C834D8353
:105200005E832701380101E010E0C114D10411F4DC
:1052100010E000E0000F111F000F111FC8018153A3
:10522000974E7C01A3019201FC0160817181828112
:1052300093810E9460E18823B1F0F701408251829E
:1052400062827382EE24E394F12C20E030E0A90125
:10525000C301B2010E94A7EA181614F0F12CE12C48
:10526000F101F182E082F10180819181823091052A
:10527000D9F08330910509F46DC0019709F03FC062
:105280002B813C814D815E81F801E153F74E6081B5
:105290007181828193810E94A7EA181684F182E0CD
:1052A00090E0F101918380830153174EB401990C72
:1052B000880B990B0E9466E19B01AC01F8016081AB
:1052C0007181828193810E947FE82B813C814D8195
:1052D0005E810E9460E118165CF15FDA6B017C016F
:1052E00028EE33E0D5010E94C2DCC60ED71EE81EB0
:1052F000F91EE981FA81C082D182E282F382269688
:105300000FB6F894DEBF0FBECDBFDF91CF911F91D6
:105310000F91FF90EF90DF90CF90BF90AF909F9054
:105320008F907F906F905F904F903F902F90089557
:1053300034DAE981FA810081118122813381601B95
:10534000710B820B930B97FDDACF83E090E0F101B4
:10535000918380836BED73E18C2D26960FB6F894C4
:10536000DEBF0FBECDBFDF91CF911F910F91FF9098
:10537000EF90DF90CF90BF90AF909F908F907F90F5
:105380006F905F904F903F902F9073CD8091DA187F
:105390009091DB180E9447146093D5127093D61237
:1053A0008093D7129093D8128091D8189091D918E1
:1053B0000E94DD14609320077093210780932207D9
:1053C00090932307A8958FB7F89410921A078FBF70
:1053D00008954F925F926F927F928F929F92AF92B9
:1053E000BF92CF92DF92EF92FF920F931F93CF93D2
:1053F000DF9300D00F92CDB7DEB780911A078111ED
:1054000015C00F900F900F900F90DF91CF911F91CB
:105410000F91FF90EF90DF90CF90BF90AF909F9053
:105420008F907F906F905F904F900895AFDFB5D9C8
:1054300069837A838B839C834090D5125090D612D7
:105440006090D7127090D8126091D3127091D412DC
:10545000072E000C880B990B0E9466E1E4E08E2E6B
:10546000912CF8E2AF2EB12CD12CC12C7B018C01F8
:10547000A301920163EC78E187EC98E1A5DE6091ED
:10548000F0187091F118072E000C880B990B0E94F0
:1054900066E19B01AC01C301B2010E94A7EA1816A4
:1054A00094F46091410270914202072E000C880B27
:1054B000990B0E9466E19B01AC01C301B2010E94FD
:1054C00060E187FDDEC060E060931C0780915D1B9A
:1054D00090915E1BA0915F1BB091601B0097A1058E
:1054E000B10501F129813A814B815C81281B390B7F
:1054F0004A0B5B0BDA01C901B7FD14C06091611B57
:105500007091621B90E080E00E9464E19B01AC011D
:10551000C301B2010E9460E187FFBCC06CEC72E184
:1055200080E0A7DC8091C9189091CA18A091CB188F
:10553000B091CC180097A105B10531F129813A81CC
:105540004B815C81281B390B4A0B5B0BDA01C901CB
:10555000B7FD1AC06091CD187091CE1890E080E030
:105560000E9464E19B01AC016091200770912107CA
:1055700080912207909123070E9460E187FF88C0F5
:105580006DEB72E18FEF75DC8091BF189091C018C0
:10559000A091C118B091C21829813A814B815C81D8
:1055A000281B390B4A0B5B0BDA01C901B7FD29CF68
:1055B00089819A81AB81BC8188579C4EAF4FBF4F88
:1055C0008093BF189093C018A093C118B093C218CD
:1055D0004090200750902107609022077090230789
:1055E0006091470770914807072E000C880B990BB4
:1055F0000E9466E122E0822E912C34E1A32EB12C90
:10560000CC24CA94DC2C7B018C01A301920169EBB0
:1056100078E18DEB98E1D8DD20E030E040EA50E41D
:10562000C301B2010E94A7EA87FD20C020E030E05C
:1056300046E153E4C301B2010E9460E11816B4F0E0
:105640006091470770914807072E000C880B990B53
:105650000E9466E19B01AC01C301B2010E9460E1BE
:1056600087FD1AC080E080931B07CBCE10921B07EA
:105670009FB7F894809102018F7D809302019FBFB4
:10568000C0CE0E9415210E94C4E9759567951CCF74
:105690005CDB7ACF8ED846CF8FE7E5CF0F931F9391
:1056A000CF93DF938C01EB0190912D1920912E194E
:1056B00092130CC0E0912119F09122190190F08110
:1056C000E02D81E299E1199584DEEECF80912C19CD
:1056D000F801408151816881798134E0839FF00134
:1056E0001124EB5DF64E42875387648775879F5F71
:1056F00090932D198F5F281739F080932C19DF9123
:10570000CF911F910F91089510922C19F8CF90917D
:10571000070780910607981731F0809106078F5F81
:105720008F708093060708951F920F920FB60F9205
:1057300011240BB60F92BF92CF92DF92EF92FF929D
:105740000F931F932F933F934F935F936F937F9389
:105750008F939F93AF93BF93EF93FF93CF93DF9379
:1057600000D00F92CDB7DEB780916E008B7F809313
:105770006E0080916F008D7F80936F007894C09051
:10578000B118D090B218E090B318F090B418C114CA
:10579000D104E104F10441F08091F218811127C095
:1057A00080913607811123C00091040710910507ED
:1057B0001A830983012B09F488C009811A810150D9
:1057C000110910930507009304071092090710921E
:1057D00008079DDF012B41F481EB92E19093B00E1D
:1057E0008093AF0E0E94629988EC90E031C00E94D5
:1057F0006A1619EBC1161BE0D106E104F10408F4A6
:105800005BC028EBC21A2BE0D20AE108F108C09273
:10581000B118D092B218E092B318F092B418F8EB25
:10582000CF2EFBE0DF2ED0928900C092880020911D
:105830008800309189008091840090918500409685
:105840002817390748F4809184009091850040968C
:105850009093890080938800F8948091EB188823B6
:1058600009F470C680916E008B7F80936E008091EA
:105870006F00826080936F000F900F900F900F90D9
:10588000DF91CF91FF91EF91BF91AF919F918F9158
:105890007F916F915F914F913F912F911F910F9148
:1058A000FF90EF90DF90CF90BF900F900BBE0F90C6
:1058B0000FBE0F901F9018951092B1181092B21849
:1058C0001092B3181092B418AECF8091080790913F
:1058D0000907892B09F0DCC1909107078091060721
:1058E000981709F444C0E0910607C0900007D090D3
:1058F0000107E0900207F09003070E2F10E02DE45F
:10590000E29FF0011124EE53FC4E9F01275B3F4FB5
:10591000D9014D915D916D917C91D701C601841B98
:10592000950BA60BB70B8093000790930107A093EC
:105930000207B0930307808188608083F093090792
:10594000E093080722A18091B018281711F1209345
:10595000B0188DE4809FF001819FF00D1124EE536B
:10596000FC4E8181809338020E94B5151BC08FB711
:10597000F8941092000710920107109202071092FB
:1059800003078FBF109209071092080780ED97E078
:105990005FCF318180913802082E000C990B3817A7
:1059A0001906A9F61092AC181092AD181092AE1804
:1059B0001092AF188DE4809FF001819FF00D1124AB
:1059C000EE53FC4E87A990AD8134BCE99B0708F0EB
:1059D00041C08132EEE49E0708F43FC0969587955A
:1059E0009695879524E02093AB188C0100521109FD
:1059F0001A830983011528E0120708F440C0E12F3B
:105A0000FF27EE0FFF1FEE0FFF1FCF018F54914FA7
:105A1000FC01329645915491AA27059F9001049F5D
:105A2000210D3A1F06942A1F3A1F1124FC0185916B
:105A30009491821B930B8436910508F049C00DE5C3
:105A400013E0D8018D918D01882309F43BC00E9499
:105A5000579CF7CF80E49CE9C1CF8131F7E29F07E3
:105A600020F09695879522E0BECF21E02093AB18D9
:105A70008032910508F0B9CF80E290E0B6CF8981FD
:105A80009A81969587958C7F8F54954FFC0125912F
:105A90003491FC0132964591549169817A81677005
:105AA0007727649FC001659F900D749F900D11240E
:105AB00043E0969587954A95E1F7A901481B590B54
:105AC000CA01B9CF89819A810E946E1884E690E05C
:105AD0009093AA188093A9188091AB188093A81866
